:020000040020DA
:1000000018660020CD2620007127200087262000BA
:100010008B2620008B2620008B262000000000006D
:10002000000000000000000000000000413E200031
:100030008B26200000000000E13E2000253F20002C
:100040008B2620008B2620008B2620008B2620006C
:10005000000000008B2620008B2620008B2620002D
:100060008B262000000000000000000000000000BF
:1000700000000000000000008B26200000000000AF
:1000800000000000000000008B2620008B262000CE
:100090008B2620008B2620008B2620008B2620001C
:1000A0008B2620008B2620008B2620008B2620000C
:1000B0008B2620008B2620008B2620008B262000FC
:1000C0008B2620008B2620008B2620008B262000EC
:1000D0008B2620000000000000000000000000004F
:1000E0000000000000000000000000000000000010
:1000F0008B262000000000008B2620008B2620008D
:1001000010B5054C237833B9044B13B10448AFF351
:1001100000800123237010BD404300200000000038
:10012000E0FF27000C4B43B10C4810B50C49AFF36E
:1001300000800C48036823B910BD0A48036833B92E
:100140007047094B002BF7D0BDE810401847064B0D
:10015000002BF5D0184700BF00000000E0FF27008B
:1001600044430020404300200000000008B54368DD
:10017000984708BD012800D070474FF6FF73994299
:10018000FAD1F0B583B0404A404B1360404951600A
:10019000404A136040495160404A136040495160F1
:1001A000404A1360404B5360002401943F4B00933E
:1001B000234680223E493F4802F09EFD01943E4B7B
:1001C0000093012340223D493D4802F095FD0194F2
:1001D0003C4B0093022340223B493C4802F08CFDFB
:1001E00001943B4B0093032340223A493A4802F0E2
:1001F00083FD0194394B0093042380223849394808
:1002000002F07AFD384F2146384602F059FD374D4D
:10021000374E2A463146384600F02FFB40223549FA
:10022000354801F0A8F83549354802F0ACFA354FA9
:100230002146384602F044FD2A463146384600F051
:100240001CFB314F2146384602F03AFD2A46314622
:10025000384600F012FB2D4C2D49204601F0A2FA41
:100260002C4E22462C49304602F0B2FC2B4C012287
:100270003146204602F0F9FA2A462949204600F084
:10028000FCFA03B0F0BD00BF304900206C5F2000D5
:10029000D9052000284900205507200040490020AA
:1002A000C9052000384900203D072000090720002B
:1002B000705F2000704A0020E9052000785F200070
:1002C0002044002055052000845F2000884A00203B
:1002D000310520008C5F2000C0430020090420006D
:1002E000945F200008440020344400200041002096
:1002F00035032000644B002050490020CC4B0020E7
:100300006C4A00201C49002020490020844A00201B
:100310001060200048490020F04B00205849002080
:100320002503200010B5044600F5847002F036FC69
:10033000204610BD10B5044602F087FC204610BDD3
:1003400030B583B0184800F087FA184C204600F00A
:1003500051FC204600F020FD10B3144C144B154AFC
:100360000021204600F0A2FC134B144A0021204635
:1003700000F0A8FC204600F0B1FC00250095104BD1
:10038000104A2946204600F011FE1F222946204629
:1003900000F098FD2946204600F0E4FD03B030BD92
:1003A000094800F059FAD8E74C602000FC4A0020C8
:1003B00028490020304900203849002040490020C9
:1003C00024602000006820005860200010B513460B
:1003D0000A4A10705170190A9170D370084C0423A6
:1003E0000021204600F096FF0021204600F0C0FDCD
:1003F0000021044802F030FC10BD00BFD4430020AF
:10040000FC4A0020204900202DE9F04186B04048F8
:1004100000F022FA4FF47A7002F006FCFFF790FF2A
:100420003C4802F02DFC1AE0332E18DCC6EBC60463
:10043000C6EBC404A4B204F50174A4B2E119DFF858
:10044000EC802A4689B2404602F02FFA9DF9172027
:1004500092B22146404602F028FA032F4BD00021E9
:100460002D4800F09DFD00212C4802F0F5FB0028EE
:10047000F5D006AB322223F8062D0DF115020292BB
:100480000DF1160201920DF117020092244A00218B
:10049000214800F097FE0028E1D19DF81530002B8F
:1004A000DDD01F4B1E7893F801801FFA88F79A78E9
:1004B000DD7805EB0225ADB21A4800F093F90A2168
:1004C000304600F09DF9184C204600F08BF90A21C7
:1004D000404600F095F9204600F084F90A212846AC
:1004E00000F0C4F9312E9FDC06EB860253009CB26B
:1004F0001034A4B2A2E7211D89B2404602F0EBF904
:1005000002468542ABD004213046FFF75FFFA6E7E5
:100510003060200034440020FC4A00201C490020A8
:10052000D44300204060200048602000584900204B
:1005300008B540F272220549054802F0A5F90448C1
:1005400002F0BCFA0A2002F06FFBF8E73844002002
:100550005849002008B54FF47A7002F065FB00217D
:10056000144800F04AFF11E0134B1B68134A82FB4A
:100570000312DB17C3EB621292B20021104802F0A3
:1005800094F909E047F2305002F04EFB0A4909485D
:1005900000F0A4FF0028E7D10A49064800F0BAFF9E
:1005A0000028EFD0074B1A780121054802F07DF9A9
:1005B000E8E700BF504900201C4400201F85EB5194
:1005C000584900202449002008B5024801F0C8F825
:1005D00008BD00BF804B002008B5024801F0C0F8FC
:1005E00008BD00BF784B002008B5074C204601F03D
:1005F000B7F8052002F018FB204601F0C2F840F2DF
:10060000E33002F011FBF0E77C4B002030B583B003
:10061000044604222F4905F053FB70B105222E49F0
:10062000204605F04DFB18B305222C49204605F065
:1006300047FB002842D003B030BD294800F00CF938
:10064000284800F0CFF80A21012000F00FF92648D1
:1006500000F0C8F80A21254B186800F007F9244873
:1006600000F0C0F80A21234B187800F0FFF8E2E709
:100670000A2201A9601D05F0B5FB044685B20A22D5
:100680000021019805F0AEFB80B20544ADB240F206
:1006900072239D4200DD1D46A4B2AC42CBDA0A2192
:1006A000204600F0ADF8144800F09CF80A21134BE6
:1006B00033F8140000F0DAF80134EEE7104800F0E7
:1006C000CBF84FF4FA7002F0AFFA0E4800F078FF62
:1006D000B1E700BF9C5F2000F45F2000FC5F2000BA
:1006E000A45F2000C45F2000D85F20001C440020CD
:1006F000E85F200024490020F05F200038440020FB
:1007000004602000484B002008B5094C0021204619
:1007100002F0A2FA204602F0B3FA64220549064824
:1007200002F034F80028F8D00248FFF76FFFF4E732
:10073000344400205C4300206C4A002008B5034884
:1007400001F01FF8024802F0A3FA08BD804B002018
:100750002049002008B5034801F013F8024802F0D0
:1007600097FA08BD784B00201C49002008B51048B6
:1007700000F00EFA0F49104801F054F80F491048E4
:1007800001F013FD4FF4E1310E4801F0ABFE66229B
:100790004FF496410C4801F007FF0C4801F010F8A7
:1007A0000B4801F015F802F036FA002008BD00BF32
:1007B000484B0020A0860100644B00200024F40078
:1007C000B04B0020CC4B0020F04B0020F44A00201E
:1007D000F84A002008B54FF6FF710120FFF7CAFC68
:1007E00008BD000048B110B5044605F061FA0246A4
:1007F0002146024801F009FF10BD7047CC4B002094
:1008000030B58BB005460C46012906DD0A2C06D012
:100810000AA8002300F8043D0CE00224F6E7002DAE
:10082000F6DA0C48FFF7DEFF6D42F1E75733DBB233
:1008300003705AB195FBF4F204FB1253DBB2154678
:100840000138092BF2DC3033DBB2F1E7FFF7CAFFE6
:100850000BB030BD6C60200008B508B1FFF7C2FFD7
:100860000148FFF7BFFF08BD7060200008B5FFF723
:10087000C7FF0020FFF7F0FF08BD0B4601461846F2
:1008800005F076B910B50446043002F0DEF92046D2
:1008900002F084F9204610BD10B50446143002F071
:1008A000D4F904F1100002F0D0F904F10C0002F0C8
:1008B000CCF9204610BD10B504460C3002F0C5F945
:1008C000204610BD38B504460D4600F03EFE65607A
:1008D000204638BD012800D070474FF6FF7399427B
:1008E000FAD12DE9F04F83B0644C6549204600F001
:1008F000C2FE6449644800F0BEFE6449644800F0EA
:10090000BAFE6449644800F0B6FE6449644800F0E9
:10091000B2FE6449644800F0AEFE6449644800F0E9
:10092000AAFE6449644800F0A6FEDFF844A26349C9
:10093000504600F0A0FEDFF83CB26149584600F096
:100940009AFE604F6049384600F095FEDFF8288235
:100950005E49404600F08FFE5D495E4800F022FF90
:100960005D495E4800F01EFF5D4D5E49284600F07F
:1009700019FF5D4E5D49304600F081FE5C495D48DF
:10098000FFF7A0FF5C495D4800F00CFF5C495D4843
:1009900000F008FF5C495D4800F004FF5C495D48D9
:1009A00000F000FF5C495D4800F084FE30215C48A7
:1009B00001F0ECFB31215B4801F07AFB00215A4841
:1009C00001F05FFEDFF8B491584B2F4A21464846AC
:1009D00000F01CFF564C224656494846FFF74DFF93
:1009E000DFF89C91544B5A465146484601F05EFD53
:1009F000DFF890A1224651464846FFF73EFFDFF858
:100A000088914E4B42463946484601F04FFD2246FA
:100A100051464846FFF731FF494F4A4B0093204B60
:100A20001D4A1B49384601F0B5FB474801F0A4FBBD
:100A3000464801F0BEFA464800F083FD454801F003
:100A40002AFDDFF84881404600F004FE2246424974
:100A50004046FFF712FF01960095204B1D4A39468C
:100A60003E4800F0E5F83E493E4800F09BFE3E4916
:100A70003E4800F097FE03B0BDE8F08FB04A00207A
:100A80007460200088602000B44A00203C6120008F
:100A9000D04A002050612000D44A0020B0602000DD
:100AA000B84A002064612000D84A00207861200004
:100AB000DC4A0020C4602000BC4A0020D86020002E
:100AC000EC602000C84A0020006120001461200072
:100AD000F0612000A84A002004622000AC4A0020F7
:100AE0009C4A0020C8612000A04A0020DC61200050
:100AF0005C410020484B002028612000744B0020FE
:100B00008C612000784B00209C6020007C4B0020F2
:100B1000A0612000804B0020B4612000504B0020D9
:100B2000A84B00209C4B0020144C002004410020C6
:100B300000410020B70820002C4100204441002043
:100B4000B04B00200C410020844B0020884B00203B
:100B5000E04A0020C84B002085082000FC4A002005
:100B60002C622000F44A002018622000F84A00207D
:100B7000C04A0020C44A0020CC4A0020644B002018
:100B8000CC4B002099082000F04B0020584B00204F
:100B900008B5416800F0DCFC064800F0F2FD0648AC
:100BA00000F0EFFD054800F0ECFD054800F0E9FD20
:100BB00008BD00BF744B0020804B0020784B002004
:100BC0007C4B002008B54FF6FF710120FFF782FE35
:100BD00008BD08B5C36813F0010F09D041685A1069
:100BE000895882688A58406800EB6300904708BDC6
:100BF0008268F8E710B50446C06800F0E1FDA0681F
:100C000000F0DEFD606800F0DBFD0121014800F02E
:100C100001FD10BD484B002010B50446C06800F02F
:100C2000D7FDA06800F0D4FD606800F0D1FD10BDD4
:100C300030B585B00446016042608360089BC360A4
:100C4000099B0361174B02930023039304A911E945
:100C500003008DE8030014496161A46104F11C05DF
:100C60009DE8030085E803006362A362E3622363F7
:100C70006363A363E363236484F8443084F84530FA
:100C800084F8463084F8473084F849302046FFF72E
:100C9000C3FF04F11401206900F044FD204605B0B3
:100CA00030BD00BFE50D20004862200021B110B426
:100CB000012904D010BC70474262836270474263CE
:100CC0008363F7E721B110B4012904D010BC704749
:100CD000C26203637047C2630364F7E708B5006943
:100CE00000F029FD08BD38B50546144612F0010F85
:100CF00004D0406A10B103681B68984714F0020FD3
:100D000004D0A86A10B103681B68984714F0100F4C
:100D100004D0286B10B103681B68984738BD38B5FC
:100D20000546144612F0010F04D0406B10B1036861
:100D30001B68984714F0020F04D0A86B10B1036829
:100D40001B68984714F0100F04D0286C10B103688A
:100D50001B68984738BD30B585B0044615460B0A68
:100D60008DF80C308DF80D1000238DF80E30C06812
:100D700000F02EFD94F8493001930322009202AB5B
:100D800003A9206801F04CFBE06800F019FD9DF814
:100D90000A302B7005B030BD10B582B00446002378
:100DA0008DF807308DF806300DF107020D21FFF7A1
:100DB000D2FF9DF80730342B02D0002002B010BDC6
:100DC0000DF106020E212046FFF7C5FF9DF8063003
:100DD000012B03D0032B03D00020EFE70120EDE728
:100DE0000120EBE710B582B004460DF107020021A7
:100DF000FFF7B1FF0DF1060201212046FFF7ABFF1F
:100E00000DF1050202212046FFF7A5FF01AA0321EB
:100E10002046FFF7A0FF94F844309DF807100B42DE
:100E200005D194F846209DF805301A4204D09DF86B
:100E300005202046FFF757FF94F845309DF806102F
:100E40000B4205D194F847209DF804301A4204D093
:100E50009DF804202046FFF762FF02B010BD00B5E8
:100E600083B071B1012909D000210DF10702FFF70C
:100E700072FF9DF8070003B05DF804FB40F2022109
:100E8000F3E74FF48171F0E710B584B004460B0A24
:100E900043F080038DF80C308DF80D108DF80E2086
:100EA000C06800F095FC94F8493001930322009249
:100EB00002AB03A9206801F0B3FAE06800F080FCFF
:100EC00004B010BD70B582B00546144601B30129C7
:100ED0001BD000260DF1070231462846FFF73BFFE5
:100EE0009DF8072022F0600252B222F01F0204F0A7
:100EF0001F0422438DF8072002F09F023146284646
:100F0000FFF7C2FF002002B070BD4FF40576E1E7A5
:100F10004FF48A76DEE708B541B1012903D00021FC
:100F2000FFF7B2FF08BD40F20321F9E740F20311D9
:100F3000F6E70000F8B507460E461D46FFF7EBFF43
:100F400001E0AC420BD031463846FFF788FF04463B
:100F5000A842F6D06421024800F042FBF1E7F8BD58
:100F6000484B002008B503231A46FFF7E3FF08BDEE
:100F700038B505460C4604231A46FFF7DBFF2CB9AB
:100F8000E86A18B103681B68984738BD012C00D087
:100F900038BDE86B0028FBD003681B689847F7E76B
:100FA00008B505231A46FFF7C5FF08BD2DE9F04F28
:100FB0008FB00646894615461C46BDF860706C4BDE
:100FC0000FCB0DF1380E0EE90F0006F14403069326
:100FD00006F14603079306F14503089306F147031C
:100FE0000993B9F1000F5BD123682289974200DC95
:100FF0003A46002101910291039104910591052146
:10100000ADF804100621ADF808100421ADF80C105D
:101010000721ADF810100821ADF814105549A1FBB7
:101020000303D8088DF80600DB0A8DF80A30A38880
:10103000A1FB0313DB088DF80E308DF81220120A85
:101040008DF81620B9F1000F33D0B9F1010F2DD072
:101050000027B9F1000F32D0B9F1010F2CD04FF0B9
:101060000008082206213046FFF70EFF0022072164
:101070003046FFF709FF0024032C23D80EAB03EB07
:10108000840A1AF80EBC5A463AF8101C3046FFF78C
:10109000FBFE5AF8203C83F800B00134A4B2EBE721
:1010A0002368A3F5B713A3F558739EE74FF40077B1
:1010B000CFE74FF48077CCE74FF48068D1E74FF467
:1010C0004078CEE70024AB889C420DDA2B6803EB16
:1010D000840233F824103944927889B23046FFF7FD
:1010E000D3FE0134A4B2EEE70024AB899C420DDAB2
:1010F000AB6803EB840233F824104144927889B240
:101100003046FFF7C1FE0134A4B2EEE70024042C00
:101110000ED80EAB03EB840333F8341C394413F8B8
:10112000322C89B23046FFF7AFFE0134A4B2EEE7AD
:10113000B9F1000F16D0B9F1010F10D000210DF157
:1011400003023046FFF707FE9DF8033013F0080F47
:101150000BD1042386F848300FB0BDE8F08F40F281
:101160000141ECE740F20131E9E70223F2E700BF79
:101170004C6220001F85EB5170B584B004461546C3
:101180001E460B0A8DF80C308DF80D10C06800F06B
:101190001FFB94F8493001930222009202AB03A98D
:1011A000206801F03DF994F84930019300962B46F0
:1011B00000221146206801F033F9E06800F000FBDE
:1011C00004B070BD2DE9F04782B0044616461D46B6
:1011D0000B46002958D0012953D00021002B59D0AB
:1011E000012B54D00027002B5AD0012B55D04FF0A3
:1011F0000009002B5AD0012B55D04FF00008002BCE
:101200005AD0012B55D04FF0000A022301AA2046E4
:10121000FFF7B2FF9DF804309DF8052043EA022352
:1012200094F848209B1A9BB22A88934247DC2B8073
:10123000324651462046FFF79FFF0DF10302494613
:101240002046FFF788FD9DF903200A9B1A700DF1D7
:10125000030241462046FFF77EFD9DF903200B9BCC
:101260001A700DF1030239462046FFF774FD9DF810
:101270000330C3F340130C9A1370002002B0BDE892
:10128000F08740F20441A9E74FF44171A6E740F22C
:101290000147A8E740F20137A5E740F20D29A8E78A
:1012A00040F20D19A5E74FF40478A8E74FF48878C9
:1012B000A5E74FF4405AA8E74FF4005AA5E74FF0CE
:1012C000FF30DBE770B584B0044615461E460B0AB6
:1012D00043F080038DF80C308DF80D10C06800F0DD
:1012E00077FA94F8493001930222009202AB03A9E5
:1012F000206801F095F894F8493001930023009399
:1013000032462946206801F08BF8E06800F058FA70
:1013100004B070BDF0B583B0054616460A4609B361
:1013200001291CD000211AB3012A1ED0002795F8EC
:1013300048401C44A4B28DF80440C4F302238DF845
:101340000530022301AA2846FFF7BCFF2346324698
:1013500039462846FFF7B6FF002003B0F0BD40F243
:101360000641E0E740F20631DDE74FF46057DEE783
:101370004FF42057DBE701600271704770B50446F7
:101380000E46006800F09CFAE7222179206800F000
:1013900005FB50B132462179206800F09DFA0546E0
:1013A00048B1206800F092FA03E00546206800F09A
:1013B0008DFA284670BD206800F088FAF9E730B54C
:1013C00083B004460D46006800F07AFAE6238DF8F3
:1013D00004308DF80550022301AA2179206800F01D
:1013E00005FB054628B1206800F070FA284603B0D6
:1013F00030BD206800F06AFAF8E730B583B00546E2
:101400000C460DF10701FFF7B9FF034610B9184666
:1014100003B030BD9DF8071001F07E0104F0810497
:1014200021438DF807102846FFF7C9FF0346EEE772
:1014300000020023084901E0490801330F2B08DCB2
:10144000C3F1170220FA02F212F0010FF4D0484063
:10145000F2E7C0B2704700BF00809800F0B583B0DB
:1014600004460D461746006800F02AFA2A462179FC
:10147000206800F093FA30B301F0D1FB0646032355
:1014800001AA2179206800F04FFA054638B90120F9
:1014900001F0CAFB01F0C3FB801B6328EFD9206871
:1014A00000F014FA9DB19DF804309DF8054004EB5E
:1014B0000324A4B29DF806602046FFF7B9FF8642D8
:1014C00008D0002503E00546206800F0FFF9284613
:1014D00003B0F0BD002FFAD03C80F8E710B582B021
:1014E0000C460DF10602F321FFF7B8FF024670B17A
:1014F0006CB1BDF8061044F2A44303FB01F31B14C6
:10150000A3F592530D3B03EB830359002160104672
:1015100002B010BD10B582B00C460DF10602F521E7
:10152000FFF79CFF024648B144B1BDF80630C3EB5B
:10153000431103EB81031B0C063B2370104602B0E2
:1015400010BD002202707047704700220270704781
:1015500038B50C46184D00224021284602F0B4FE52
:1015600000228021284602F0AFFE012240212846B9
:1015700003F046FC01228021284603F041FC62680A
:101580006178207803F028FFA06803F0DBFE637821
:1015900023B90A4B1B6813F4002FFAD023784BB100
:1015A000064B1B6813F0806FFAD1044B1B6813F0D5
:1015B000806FFAD038BD00BF00C00D4004200D4040
:1015C00008B503F051FF08BD08B503F09BFC08BD4A
:1015D00010B50C46FFF7F8FF201AC00F10BD000031
:1015E00070B505460E461F2900D801262846FFF78C
:1015F000EBFF074CA4FB0634361B04EB560400EB50
:10160000141421462846FFF7E3FF0028F9D070BDE7
:101610008510420808B54FF47A7303FB01F1FFF718
:10162000DFFF08BD094BB3F1281F04D31A780A70F5
:10163000013B0131F7E7064B044A934204D91A787B
:101640000A70013B0131F7E7704700BF2B0028000B
:101650002F00280010B5044601F096FA0021201D45
:1016600001F02EFB00232372204610BD08B5043084
:1016700001F00EFB08BD016070470068704710B5AF
:101680000446FFF7F8FF00236360236819791868A0
:1016900002F0F8FE2368DA681979186802F044FE4F
:1016A00023689A680AB9204610BD1979186803F0B2
:1016B000A7FBF8E710B50446FFF7E1FF23681979A7
:1016C000186802F0DFFE2368DA681979186802F0FA
:1016D00091FF23681B680F4A934209D00E4A934238
:1016E0000BD00E4A93420CD00D4A93420DD0FEE728
:1016F000012003F019F8204610BD022003F014F871
:10170000F9E7042003F010F8F5E7082003F00CF8DF
:10171000F1E700BF00900D4000A00D4000B00D406B
:1017200000C00D4010B50446416000F027FA204685
:1017300000F028FA10BD10B504460368197918683E
:1017400002F062FE23681979186802F033FE10BDBA
:10175000406820B108B503681B68984708BD70470A
:1017600008B503681A69012A05D019790A4618686C
:1017700002F076FE08BD00221979186802F070FEAA
:1017800008BD08B503681A69012A05D00022197935
:10179000186802F065FE08BD19790A46186802F05B
:1017A0005FFE08BD10B50446FFF765FF2368197991
:1017B000186802F081FE2046FFF7E3FF204610BDC7
:1017C00008B5036819790A46186802F049FE08BD91
:1017D00008B5036800221979186802F041FE08BDB7
:1017E000012800D070474FF6FF739942FAD1044B9D
:1017F0001A68044BB3FBF2F3034A1360F2E700BF2D
:10180000E0692000A0860100184C002010B50446B5
:1018100001604260836001210C3001F051FA2046E2
:1018200010BD000070B5044609B18268516020689F
:10183000FFF723FF06466068FFF71FFF0546A36812
:10184000186803F08BFEA368186803F0A5FEA36870
:10185000186803F0BFFEA368186803F049FE3179E9
:10186000306802F043FE134A3179306803F0AEF974
:101870000C223179306803F04BF92979286802F09D
:1018800035FE0D4A2979286803F0A0F90B22297941
:10189000286803F03DF9A3685C68084BE41A18BF98
:1018A000012403F01FFD214602F0E4FF02F0DAFFFD
:1018B00070BD00BF30410D402C410D40A08601009D
:1018C00008B500210C3001F0C7F908BD08B50C308F
:1018D00001F0D6F908BD000038B508461546104B92
:1018E0001C68012102F0EAFF072003F009F80D4807
:1018F000FFF76AFE044402F0F7FF38B121460948B9
:10190000FFF766FE0028F6D0002038BD03F02EF861
:10191000287003F013F8B0FA80F0400938BD00BF1A
:10192000184C0020484B0020F8B5084617461E46C4
:10193000184B1C68012102F0C1FF0B2002F0E0FFF0
:101940001548FFF741FE04440EB302F0CDFF0546F3
:1019500040B121461048FFF73BFE0028F5D0002596
:101960002846F8BD02F0EAFF0028F9D102F0FEFF98
:101970007D1C3870013EF6B2012E04DD092002F014
:10198000BFFF2F46E0E7052002F0BAFFF9E7012587
:10199000E6E700BF184C0020484B002038B5084649
:1019A0001546104B1C68002102F088FF284602F003
:1019B000D7FF072002F0A4FF0B48FFF705FE044401
:1019C00002F092FF38B121460748FFF701FE0028D8
:1019D000F6D0002038BD02F0B1FFB0FA80F0400927
:1019E00038BD00BF184C0020484B00202DE9F041C5
:1019F000084615461F46224B1C68002102F05EFF78
:101A00006E1C287802F0ACFF013FFFB2032002F009
:101A100077FF1C48FFF7D8FD044402F065FF054638
:101A200088B121461748FFF7D3FD0028F5D00025DF
:101A30002846BDE8F081012002F062FF10E002F0CC
:101A40007DFFC8B94646CFB106F10108307802F0F3
:101A500087FF013F17F0FF07EDD1052002F050FF8F
:101A600002F042FF06460028E9D021460548FFF76C
:101A7000AFFD0028F4D0DBE73546D9E70125D7E7ED
:101A8000184C0020484B0020704708B54FF6FF71F6
:101A90000120FFF7A5FE08BD08B5034B186808B183
:101AA00000F0CDFD08BD00BFB84C002008B5034BC9
:101AB000186808B100F0C3FD08BD00BFBC4C002091
:101AC00008B5034B186808B1FFF7DEFF08BD00BF7B
:101AD000284C002008B5034B186808B100F0BFFC83
:101AE00008BD00BF2C4C002008B5044B1B681BB17F
:101AF000034B186800F0B3FC08BD00BF2C4C00205D
:101B0000304C002008B5034B186808B100F058FAB3
:101B100008BD00BFB44C002008B5034B186808B1DD
:101B200000F0B4FA08BD00BFB44C002008B5034B68
:101B3000186808B100F0C2FA08BD00BFE04C0020F0
:101B400008B5034B186808B1FFF7FEFC08BD00BFDD
:101B5000204C002008B5034B186808B100F00BFEBC
:101B600008BD00BF1C4C002008B5034B186808B125
:101B7000FFF77CFD08BD00BF244C002000487047E3
:101B8000E44C002070B50646FFF777FD0568304647
:101B9000FFF773FD0479012C0FD0022C1BD0042C0D
:101BA0001BD0082C1BD0102C1BD0202C1BD0402C61
:101BB0001BD0802C02D1072400E000241C4B9D4246
:101BC00015D01C4B9D421AD01B4B9D421FD01B4B66
:101BD0009D4224D070BD0124F0E70224EEE70324E7
:101BE000ECE70424EAE70524E8E70624E6E7F02129
:101BF000102002F0C1FE124B43F8246070BDF021AA
:101C0000112002F0B9FE0F4B43F8246070BDF021A3
:101C1000122002F0B1FE0C4B43F8246070BDF0219D
:101C2000132002F0A9FE094B43F82460D2E700BF5D
:101C300000900D4000A00D4000B00D4000C00D40D0
:101C4000344C0020544C0020744C0020944C002054
:101C50002DE9F04180464F4F4FF6FF71384603F0B3
:101C600027FE4D4E4FF6FF71304603F021FE4B49E3
:101C70004B4802F0DBFB4B494B4802F0D7FB4B498A
:101C80004B4802F0D3FB4B494B4802F0CFFB4B4D86
:101C90004B4C2A46FF21204602F076FD2A464FF49F
:101CA0007F41204602F070FD2A464FF6FF71204624
:101CB00002F06AFD434D04F580542A46FF21204678
:101CC00002F062FD2A464FF47F41204602F05CFD9F
:101CD0002A464FF6FF71204602F056FD3A4D04F5B4
:101CE00080542A46FF21204602F04EFD2A464FF43A
:101CF0007F41204602F048FD2A464FF6FF712046FC
:101D000002F042FD314D04F580542A46FF21204661
:101D100002F03AFD2A464FF47F41204602F034FD9E
:101D20002A464FF6FF71204602F02EFD284938461C
:101D300003F0A0FD2749304603F09CFD264802F041
:101D4000B3FD2649264803F09BF92649264803F0AF
:101D500097F926492A2002F0ABFE25492B2002F0F4
:101D6000A7FE2449312002F0A3FE23492E2002F0D1
:101D70009FFE22491E2002F09BFE214C21463E2060
:101D800003F0D6FE21463F2003F0D2FE4046BDE8D8
:101D9000F08100BF00C0004000D00040C11E200004
:101DA00000900D40D51E200000A00D40E91E20002F
:101DB00000B00D40FD1E200000C00D40551F20004A
:101DC00000000340691F20007D1F2000911F20009C
:101DD000991A2000AD1A2000C11A2000D51A20003F
:101DE00000800040E91A200000900040051B200000
:101DF000191B20002D1B2000411B2000551B20001B
:101E0000691B2000012800D0704708B54FF6FF730A
:101E1000994200D008BD0248FFF71AFFFAE700BF59
:101E2000E44C0020F8B505460F46012102F0D6FA31
:101E300006460121284602F01BFC0446F1B2284662
:101E400002F0E2FAE1B2284602F042FC344314F018
:101E5000010F03D0386808B1FFF77AFC14F0020FC5
:101E600003D0786808B1FFF773FC14F0040F03D0B7
:101E7000B86808B1FFF76CFC14F0080F03D0F868DD
:101E800008B1FFF765FC14F0100F03D0386908B1F2
:101E9000FFF75EFC14F0200F03D0786908B1FFF75C
:101EA00057FC14F0400F03D0B86908B1FFF750FC9D
:101EB00014F0800F03D0F86908B1FFF749FCF8BDB2
:101EC00008B502490248FFF7ADFF08BD344C0020B9
:101ED00000900D4008B502490248FFF7A3FF08BD76
:101EE000544C002000A00D4008B502490248FFF7FD
:101EF00099FF08BD744C002000B00D4008B50249A0
:101F00000248FFF78FFF08BD944C002000C00D4031
:101F100038B50E4D0121284602F080FC04460146EA
:101F2000284602F08FFC0A4B186810B114F0170F06
:101F300006D1074B586810B114F4706F03D138BD47
:101F400000F0ACFAF5E700F0A9FAF8E7000003406A
:101F5000C04C002008B502490248FFF7D9FF08BD70
:101F6000C04C00200000034008B502490248FFF7BA
:101F7000CFFF08BDC84C00200010034008B502493F
:101F80000248FFF7C5FF08BDD04C002000200340E9
:101F900008B502490248FFF7BBFF08BDD84C002036
:101FA0000030034008B54FF6FF710120FFF72AFF0C
:101FB00008BD0022027042608260C2600261704708
:101FC0002DE9F04104462F4F3D682F4ED6F8008092
:101FD0002A2002F033FD00233B60336015F0020F2E
:101FE0000AD02378DBB2022B1BD00023F3B922786E
:101FF000D2B2052A21D02BBB15F0400F05D0237893
:10200000DBB2032B25D0002343BB18F0020F06D010
:102010002378DBB2062B28D00023002B2AD1BDE881
:10202000F0816368002BE1D00123DFE703232370F5
:10203000606803681B689847DEE7E268002ADAD028
:102040000123D8E706232370E06803681B689847DC
:10205000D2E7A368002BD7D00123D5E70423237050
:10206000A06803681B689847CFE72369002BD4D08A
:102070000123D2E707232370206903681B68984770
:10208000CDE700BF348808403088084038B5074D98
:102090002C682B2002F0D2FC2B681C4014F0020F9D
:1020A00002D06FF002022A6038BD00BF948608405B
:1020B000016000224260826070470000F8B5074668
:1020C000124B1C68124D2E68312002F0B7FC002321
:1020D0002B6004EA060313F0100F09D02B6823F0DD
:1020E00010032B60B86880B103681B689847F8BD7F
:1020F00013F0080F09D0064A136823F00803136091
:10210000786810B103681B689847F8BD08880840D4
:102110000C88084008B503681B68984708BD08B5D7
:1021200003685B68984708BD00B583B069460B48F3
:10213000FFF778FA9DF804009DF805301B0443EA88
:1021400000639DF8060043EA00239DF8070018434A
:1021500003F04CFD03B05DF804FB00BF484B0020CA
:1021600008B503F06BFD80B208BD0000014B0360B1
:10217000704700BFEC69200010B50446FFF7F6FF7A
:10218000014B2360204610BDFC6920000160002245
:102190004260704710B4016042608360019BC3607D
:1021A00000230361436110BC70472DE9F04182B008
:1021B000044688460068FFF760FA07466068FFF744
:1021C0005CFA0646A068FFF758FA0546B8F1000F1A
:1021D00002D0E368C3F81C80E368186803F0BEF916
:1021E000E368186803F0D8F9E368186803F0F2F9B7
:1021F000E368586802F02CFFE3689968586803F0B8
:102200001FF8BA683979386802F0E0FCB2683179B1
:10221000306802F07DFCAA682979286802F078FC11
:102220003979386802F07CF93179306802F078F950
:102230002979286802F074F9E3689B6813B1012BCF
:1022400015D0FEE703F04EF8E1684D684A690B6966
:10225000CE698969019100960146284602F066FE22
:10226000E368586802F0DCFE02B0BDE8F08103F0DC
:102270007FF8E1684D684A690B69CE698969019107
:1022800000960146284602F051FEE9E72DE9F047A5
:1022900082B004468A4699460A9E904622B136B1DB
:1022A000B24206D9174600E03746002508E0174637
:1022B000FBE73746F9E7FF2109E000221A700135F4
:1022C000AF421AD9B8F1000FF5D01AF80510E3683B
:1022D000586802F027FFE368586802F099FF002869
:1022E000F9D1E36801A9586802F044FF09EB05033E
:1022F000002EE2D09DF80420E0E7012002B0BDE806
:10230000F08700002DE9F04784B0FF248DF80F40DE
:102310008DF80E4099427ED0C46865683F4CA54256
:1023200009D004F58054A54201D0002046E01824CD
:102330004FF0190802E00A244FF00B0899461646A0
:102340008A460746002A3CD00221284602F02EFF8A
:102350004FF04041404603F015FBFB685B68009678
:10236000083352460121404603F034FB0C9B002BFE
:102370003CD0FB680121586802F018FF4FF0406123
:10238000204603F0FFFAFB685A680C9B00934B460B
:1023900008320121204603F01DFB204603F0DAFA43
:1023A000404603F0D7FA204603F09AFB0028FAD102
:1023B000FB680321586802F011FF012004B0BDE85A
:1023C000F0870221284602F0F1FE4FF04C414046D2
:1023D00003F0D8FAFB685B680C9A009208330DF1A1
:1023E0000F020121404603F0F5FABFE7FB68012127
:1023F000586802F0DBFE4FF04C41204603F0C2FA71
:10240000FB685A6800960DF10E0308320121204640
:1024100003F0E0FAC1E70020D0E700BF00800040F1
:1024200030B583B0069C9DF81C5025B90094FFF789
:102430002DFF03B030BD0094FFF764FFF9E740695A
:1024400020B108B503681B68984708BD704700694C
:1024500020B108B503681B68984708BD704738B5B8
:102460000546C3680121586802F02CFE0446EB685B
:102470000146D86802F040FE14F0080F03D114F0B2
:10248000040F04D138BD2846FFF7E1FFF7E72846DF
:10249000FFF7D5FFF6E7002202807047406820B1C1
:1024A00008B503681B68984708BD704710B5044617
:1024B00001604260836000210C3000F001FC0021CB
:1024C00004F1100000F0FCFB002104F1140000F006
:1024D000F7FB0023A361E36184F8203084F8213006
:1024E000204610BDF8B504460F460068FFF7C5F852
:1024F00006466068FFF7C1F805460FB1A3681F6183
:10250000A368186803F02AF8A368186803F044F871
:10251000A368186803F05EF8A368586803F0C6F86B
:10252000A3689968586803F0FBF9B268317930689C
:1025300002F04CFBAA682979286802F0E9FA31799F
:10254000306802F007F82979286802F02BF8A368B0
:102550009B6813B1012B1DD0FEE702F0C3FEA568F6
:102560006B692A690146686803F0BCF8A3682022F9
:102570000021586803F05CF8A368586803F0E6F897
:10258000A3681021586803F0F3F8A368586803F0B3
:1025900075F8F8BD02F0ECFEA5686B692A69014682
:1025A000686803F09FF8E1E708B583685A61FFF7B0
:1025B00099FF08BD70B504460E468368586803F05D
:1025C000F5F8054608B9284670BDA368586803F0B9
:1025D00001F9002801DB3070F5E70025F3E7F8B5D5
:1025E00006460D4617460024BC4207D2B368586819
:1025F00003F006F9287001340135F5E7B36858682F
:1026000003F026F90028F9D1F8BDF8B507461646BB
:102610000024B44208D2BB684D1C0978586803F006
:1026200003F901342946F4E70020F8BD10B504464B
:10263000A368586803F00CF90028F9D110BD38B52B
:10264000054683680121586803F046F90446AB68E3
:102650000146586803F054F914F0200F0CD114F01F
:10266000500F08D0C4F3801485F82040A86910B139
:1026700003681B68984738BD05F1140000F008FB9B
:10268000EDE70160704700BFFDE700BFFDE7000018
:1026900008B5FF21074801F0F5FEFF21064801F0CB
:1026A000F1FEFF21054801F0EDFEFF21044801F095
:1026B000E9FE08BD00900D4000A00D4000B00D40A7
:1026C00000C00D4008B502F0D5FEFCE700B583B0B0
:1026D000FF221B4B1A601B4A1B4B1A601B4B0193BA
:1026E0001B4B1A681B4B9A4204D1019B5A1E019244
:1026F000002BF5D10022144B1A60174A136843F0DF
:1027000001031360154B164A03E011681960043386
:10271000043214498B42F8D3134B05E01A460021CA
:1027200042F8041B1B681346104A9342F6D3FFF786
:10273000AFFF03F02BFAFEF719F8FFF7C3FF00BF56
:10274000B4200D40BBAABBAA0430002080841E0028
:10275000003000204812F0A598200D4000400020D5
:10276000F46D20004043002040430020185E00200C
:1027700008B5FFF7ABFF406820B108B503681B68D8
:10278000984708BD7047016070470000F0B583B0FE
:1027900006460D461746022221490068FFF735FF1D
:1027A0002C460CE09DF80730202B16D103E00D2BB2
:1027B00020D0AC4223D1631B7A1E93422CD201223B
:1027C0000DF107013068FFF70AFF01220DF1070143
:1027D0003068FFF71AFFAC42E4D09DF807300D2BAC
:1027E000E5D00A2BE3D07F2B0DD0082B0BD0237024
:1027F0000134E0E701220B493068FFF706FF0023B0
:102800002370012009E0AC42D5D9013C03220649DE
:102810003068FFF7FAFECEE7002003B0F0BD00BF3E
:10282000046A2000086A20000C6A200030B44FF6C9
:10283000FF7301E0214628464C1E81B1451C0278F9
:102840005340002201E05B080132072AF2DC13F05A
:10285000010FF8D04AF2010181EA6303F4E71A029A
:1028600042EA132398B230BC704710B504460160A9
:10287000027100F5847000F087F90023C4F80C3170
:10288000A4F81031204610BDF8B504460F46164690
:1028900000F58475284600F088F9C4F80C71A4F896
:1028A0001061284600F08CF9F8BDF8B5B0F8103189
:1028B000994200DBF8BD16460D46044600F58477C4
:1028C000384600F072F9D4F80C3123F81560384618
:1028D00000F076F9EEE770B5B0F81031994202DBFE
:1028E0000024204670BD0D46044600F5847630462F
:1028F00000F05BF9D4F80C3133F81540304600F0A5
:102900005FF9EEE72DE9F843D0F80C31002B3CD00D
:102910000C784B7803EB04239DB28B78CC7804EBD6
:102920000324A4B27D2C02DD0220BDE8F8832B191C
:10293000B0F81061B34202DD0220BDE8F88316460C
:10294000814663004F1C0B7000F58478404600F010
:102950002CF9D9F80C3103EB4503611E89B264B13F
:10296000184630F8024B240A3A4602F8024B1B780C
:102970007B700C4603461746EFE7404600F020F90F
:1029800036B137600020BDE8F8830120BDE8F88348
:102990000020BDE8F883D0F80C312BB32DE9F041CD
:1029A0000B784C7804EB0324A4B2B0F810319C42AD
:1029B00002DD0220BDE8F08117460E46054600F50F
:1029C0008478404600F0F1F8D5F80C21B178F3781E
:1029D00003EB012322F81430404600F0F1F82FB148
:1029E0003E600020BDE8F081012070470020BDE876
:1029F000F081D0F80C31002B45D02DE9F0470C7850
:102A00004B7803EB04239DB28B78CC7804EB032442
:102A1000A4B27D2C02DD0220BDE8F0872B19B0F8AE
:102A20001071BB4202DD0220BDE8F0870B79B3EBE9
:102A3000440F02D00320BDE8F08790468946064641
:102A40004F1D00F5847A504600F0AFF8D6F80C31EF
:102A500003EB4505631E9BB244B139787A7802EBEB
:102A600001222A8002371C460235F3E7504600F067
:102A7000A7F809F10401B8F1000F06D0C8F800105A
:102A80000020BDE8F087012070470020BDE8F087F6
:102A900008B50B78062B09D0102B0BD0032B01D0D7
:102AA000012008BD0131FFF72DFF08BD0131FFF7FF
:102AB00072FF08BD0131FFF79CFF08BDF0B583B080
:102AC0000546471D009700F0AAF806460DE000F005
:102AD000A6F80646009B5A1C00929DF807201A7023
:102AE00003E0A4B9012000F09FF80DF10701286868
:102AF00000F077F804460028E9D1009B9F4216D0E9
:102B000000F08DF8801B0528EBD90124E9E7009B34
:102B1000D91B02290BDD13F8022C13F8014C44EAEF
:102B2000022402393846FFF781FE844201D003B007
:102B3000F0BD6A792B799A42F9D1AC1D6A462146DB
:102B40002846FFF7A5FF38B1AB7943F08003AB719E
:102B500005F108030093E871009CE11B3846FFF77C
:102B600065FE631C0093C0F307232370009B5A1C6F
:102B700000921870052000F057F8009AD21B3946D1
:102B8000286800F033F8D2E710B50446012000F0C1
:102B900095FA206008B1204610BDFEE710B5044646
:102BA000006800F0B3FB204610BD08B54FF0FF31C0
:102BB000006800F0EDFA012814BF0020012008BDD4
:102BC00008B500231A461946006800F0B3F908BD9D
:102BD00010B50446016042601046FEF7D2FD204663
:102BE00010BD08B50068FFF7E5FC08BD70B50446E8
:102BF0000D4616464068FEF7E3FD3246294620683A
:102C0000FFF703FD05462068FFF710FD6068FEF73B
:102C1000DFFD284670BD08B500F032FD08BD08B5DF
:102C200000F074FD08BD000008B54FF47A7303FB93
:102C300000F0034BA3FB0030800900F077FE08BDD5
:102C4000D34D621000220260704710B50446006840
:102C500000F05CFB204610BD08B549B94FF0FF31CC
:102C6000006800F095FA012814BF0020012008BD7B
:102C7000006800F08DFA012814BF0020012008BD73
:102C800008B500231A461946006800F053F908BD3C
:102C900000B583B002A9002341F8043D006800F0AC
:102CA00018FA019B3BB14FF08052044B1A60BFF3FE
:102CB0004F8FBFF36F8F03B05DF804FB04ED00E0AE
:102CC00038B504460D46FFF7BDFF03220021012061
:102CD00000F00CF9206010B115B9204638BDFEE7B0
:102CE0002046FFF7CDFFF8E720B108B5C3680069BB
:102CF000984708BD7047000010B582B00446416097
:102D000083600498E0600598206101940093234655
:102D1000024800F083FC204602B010BDE92C2000E0
:102D2000436A23B1036B1868C0F1050070470020A7
:102D3000704710B5044601F095F8A26BE36B9A4218
:102D400004D0002401F0B0F8204610BD0124F9E7BA
:102D500010B5044601F086F8A36B23B1002401F0FE
:102D6000A3F8204610BD0124F9E770B504461646C5
:102D7000856B026C4AB9036853BB806800F056FF4C
:102D80000023A3600135A56370BD6EB9406802F0F1
:102D900021FF226C636813446360A268934219D3D5
:102DA000236863600020EDE7C06802F013FF236C26
:102DB0005B42E2681A44E26021688A4202D2A26859
:102DC0001344E360022E07D145B1013D0020D9E74D
:102DD0000020D7E70020D5E70020D3E70020D1E787
:102DE00038B5054601F03EF895F8454064B201E07B
:102DF000013C64B2002C0ADD6B6A43B105F124008A
:102E000000F020FE0028F3D000F0AEFEF0E7FF2334
:102E100085F8453001F048F801F024F895F8444071
:102E200064B201E0013C64B2002C0ADD2B6943B1BD
:102E300005F1100000F006FE0028F3D000F094FE2B
:102E4000F0E7FF2385F8443001F02EF838BD00008C
:102E500038B530B304460D4601F004F82168E26B42
:102E6000236C03FB0210A0600020A0636160013AA4
:102E700002FB0313E360FF2384F8443084F84530F9
:102E8000C5B92369F3B104F1100000F0DBFDC8B14E
:102E90004FF080520D4B1A60BFF34F8FBFF36F8F0F
:102EA00010E04FF0A00383F31188BFF36F8FBFF3DF
:102EB0004F8FFEE704F1100001F076F904F12400D1
:102EC00001F072F900F0F0FF012038BD04ED00E0E0
:102ED00010B5029B0C4639B11A60D8631C640121FD
:102EE0001846FFF7B5FF10BD1B60F6E740B94FF07D
:102EF000A00383F31188BFF36F8FBFF34F8FFEE7FB
:102F0000F0B583B0054611B101FB00F000E00020F0
:102F100017460C46483001F0D5F8064638B1009007
:102F20003B4600F1480221462846FFF7D1FF3046D4
:102F300003B0F0BDF0B585B0019260B1044699B11F
:102F40000122BAB94FF0A00383F31188BFF36F8F4A
:102F5000BFF34F8FFEE74FF0A00383F31188BFF359
:102F60006F8FBFF34F8FFEE7026C0AB90122E8E7CB
:102F70000022E6E7022B09D06AB94FF0A00383F3E1
:102F80001188BFF36F8FBFF34F8FFEE7E06B01280F
:102F9000F2D00022F0E71D460E46002739E02A460F
:102FA00031462046FFF7E1FE636A8BB104F124004D
:102FB00000F048FD38B14FF08052394B1A60BFF332
:102FC0004F8FBFF36F8F00F06FFF012005B0F0BD92
:102FD0000028F8D04FF08052314B1A60BFF34F8F6A
:102FE000BFF36F8FEFE700F05FFF0020EEE702A86E
:102FF00000F06EFD012719E0002384F8443021E041
:10300000002384F8453023E02046FFF7E9FE00F076
:103010000FFC00F027FFA26BE36B9A42BFD3022D97
:10302000BDD0019B002BDED0002FE0D000F03CFF94
:1030300000F064FB00F016FF94F844305BB2B3F18B
:10304000FF3FD9D094F845305BB2B3F1FF3FD7D002
:1030500000F02AFF01A902A800F046FDC8B92046E9
:10306000FFF767FE0028CFD0019904F1100000F0AF
:10307000D1FC2046FFF7B4FE00F0DAFB0028C8D1EF
:103080004FF08052064B1A60BFF34F8FBFF36F8F24
:10309000BFE72046FFF7A4FE00F0CAFB002095E73B
:1030A00004ED00E048B108B5002181600160C16015
:1030B0000B460A46FFF73EFF08BD704710B50246B3
:1030C00000210120FFF712FF0446FFF7EBFF204627
:1030D00010BD60B170B50446036C8BB14FF0A00316
:1030E00083F31188BFF36F8FBFF34F8FFEE74FF06D
:1030F000A00383F31188BFF36F8FBFF34F8FFEE7F9
:10310000036853B1012373B94FF0A00383F311880F
:10311000BFF36F8FBFF34F8FFEE783680BB90123B7
:10312000F1E70023EFE70E4600F088FFEFF311858B
:103130004FF0A00383F31188BFF36F8FBFF34F8F5E
:10314000A26BE36B9A421AD294F845305BB201321B
:10315000A263B3F1FF3F0CD1636A93B104F1240081
:1031600000F070FC78B186B10120306085F31188E1
:1031700070BD01335BB284F845300120F6E70020D2
:10318000F4E70120F2E70120F0E70120EEE700007C
:1031900070B584B0019158B10446036C8BB14FF007
:1031A000A00383F31188BFF36F8FBFF34F8FFEE748
:1031B0004FF0A00383F31188BFF36F8FBFF34F8FDE
:1031C000FEE700252E464EE0013BA363236813B9BA
:1031D00000F0E6FDA060236963B104F1100000F087
:1031E00031FC38B14FF08052474B1A60BFF34F8F1C
:1031F000BFF36F8F00F058FE0125284604B070BD64
:1032000045B14FF0A00383F31188BFF36F8FBFF375
:103210004F8FFEE700F048FEEFE702A800F058FCF1
:1032200001262AE0002384F8443032E0002384F8A9
:10323000453034E000F016FEA06800F09BFC054627
:1032400000F032FE3BE02046FFF7CAFD00F0F0FA46
:1032500009E02046FFF7C4FD00F0EAFA2046FFF738
:1032600077FD002840D100F0FDFDA36B002BABD112
:10327000019B002BC4D0002ECFD000F015FE00F033
:103280003DFA00F0EFFD94F844305BB2B3F1FF3F3C
:10329000C8D094F845305BB2B3F1FF3FC6D000F020
:1032A00003FE01A902A800F01FFC0028D1D120468E
:1032B000FFF74EFD0028C6D02368002BBAD0019935
:1032C00004F1240000F0A6FB2046FFF789FD00F082
:1032D000AFFA0028C7D14FF080520B4B1A60BFF3F2
:1032E0004F8FBFF36F8FBEE7002D86D000F0BAFD81
:1032F0002046FFF715FD0146A06800F0F1FC00F044
:10330000D3FD002579E700BF04ED00E008B540B922
:103310004FF0A00383F31188BFF36F8FBFF34F8F7C
:10332000FEE700F021FF08BD084B1B681B683BB19E
:10333000064B1B68DB68DB685A68054B1A607047F0
:103340004FF0FF32024B1A60704700BFEC4C002078
:103350009C4D002010B50446006B00F005FF204690
:1033600000F002FF10BD2DE9F047089EDDF8248033
:103370000A9CA1B10D46216B02F18042013A01EB9A
:10338000820222F0070700220B2A11D815F802E06A
:10339000A11881F834E0A95C51B10132F4E74FF093
:1033A000A00383F31188BFF36F8FBFF34F8FFEE746
:1033B000002284F83F20042E00D904269946824634
:1033C000E662266400256564201D00F0F8FE04F125
:1033D000180000F0F4FE2461C6F10506A6616462DF
:1033E000A56484F84C504A465146384600F016FD14
:1033F0002060B8F1000F01D0C8F80040BDE8F087A8
:1034000038B5002407E004EB840293000E4818440A
:1034100000F0CAFE0134042CF5D90C4D284600F00A
:10342000C3FE0B4C204600F0BFFE0A4800F0BCFE75
:10343000094800F0B9FE094800F0B6FE084B1D60CF
:10344000084B1C6038BD00BFF44C0020704D0020BC
:10345000844D0020A44D0020D04D0020BC4D002004
:10346000EC4C0020F04C002010B5044600F0FAFCB3
:10347000204A1368013313601F4B1B68002B31D0A7
:103480001E4B1B683BB91C4B1B68DA6AE36A9A4205
:1034900001D8194B1C601A4A136801331360E36AA0
:1034A00001229A401749086802430A6003EB83032C
:1034B0009A00211D1448104400F084FE00F0F4FC32
:1034C0000E4B1B686BB10C4B1B68DA6AE36A9A42BD
:1034D00007D24FF080520D4B1A60BFF34F8FBFF3EE
:1034E0006F8F10BD044B1C601368012BD3D1FFF705
:1034F00087FFD0E7584D0020E84C0020B84D002051
:10350000684D00206C4D0020F44C002004ED00E0DC
:103510000F4B1B68D3B110B500F0A4FC0D4BDB685A
:10352000DC68201D00F074FE0B4A1368013B136039
:10353000074A1368013B136000F0B6FC2046FFF712
:1035400009FF034B1B68002BE6D110BD704700BF7D
:103550005C4D0020D04D0020584D002008B5FFF7ED
:10356000D7FF064B1B68012BF9D94FF08052044B53
:103570001A60BFF34F8FBFF36F8FF0E7F44C00205A
:1035800004ED00E070B504460E461D4B1D681D4B52
:103590001868043000F03CFE50B91A4B1B68DA6A18
:1035A000012303FA02F218490B6823EA02030B60B5
:1035B000B4F1FF3F13D02C44124B1B685C60A54252
:1035C00016D8124B18680F4B1968043100F006FE2C
:1035D0000F4B1B689C4201D20D4B1C6070BD002E2E
:1035E000E9D0084B196804310A4800F0EBFD70BDC2
:1035F000094B1868034B1968043100F0EFFD70BDEA
:10360000E44D0020E84C00206C4D0020EC4C0020E4
:103610009C4D0020BC4D0020F04C00202DE9F043D3
:1036200085B006460F4615469846900000F04AFDC4
:1036300000B38146502000F045FD0446B0B1C0F80B
:103640003090CCB10023039302940D9B01930C9B0B
:10365000009343462A4639463046FFF784FE20460B
:10366000FFF702FF012005B0BDE8F083484600F0F7
:103670007BFDE6E70024E4E74FF0FF30F3E70000CE
:1036800000B583B0174B01930023009380221649A5
:103690001648FFF7C3FF012805D0B0F1FF3F17D050
:1036A00003B05DF804FB4FF0A00383F31188BFF370
:1036B0006F8FBFF34F8F4FF0FF320D4B1A60012217
:1036C0000C4B1A6000220C4B1A6000F05BFCE7E721
:1036D0004FF0A00383F31188BFF36F8FBFF34F8FB9
:1036E000FEE700BF984D0020106A20005D352000E5
:1036F0009C4D0020B84D0020E44D0020024A136884
:1037000001331360704700BF644D0020014B1868FF
:10371000704700BFE44D0020F8B53A4B1B68002B02
:1037200064D1394B1D6801351D60C5B9374B1B6825
:103730001B6843B14FF0A00383F31188BFF36F8F71
:10374000BFF34F8FFEE7314A1168314B18681060A4
:103750001960304A136801331360FFF7E5FD2E4B03
:103760001B689D4238D200242C4B1B68DB6A03EB9C
:1037700083039A002A4B9B58012B3CD901243AE041
:103780000124224B1B681B6843B3204B1B68DB687A
:10379000DE6873689D4226D3371D384600F038FD39
:1037A000B36A1BB106F1180000F032FDF36A012282
:1037B0009A401C49086802430A6003EB83039A009D
:1037C00039461748104400F0FDFCF26A134B1B68A1
:1037D000DB6A9A42D4D2D4E70024D2E74FF0FF321A
:1037E0000D4B1A60C0E70C4A1360BDE70E4A136820
:1037F0000133136000240D4B1B6803B101242046E4
:10380000F8BD00BF644D0020E44D0020EC4C0020CA
:10381000F04C0020A04D00209C4D0020E84C0020E2
:10382000F44C00206C4D0020604D0020E84D00203D
:1038300038B5354B1B6843B94FF0A00383F31188AB
:10384000BFF36F8FBFF34F8FFEE700F00BFB2E4BE4
:103850001A68013A1A601B68002B50D12B4B1B6869
:1038600023B9002400F020FB204638BD0024284B5B
:103870001B681BB3264BDB68DC6804F1180000F002
:10388000C7FC251D284600F0C3FCE36A01229A40CC
:103890002049086802430A6003EB83039A00294623
:1038A0001D48104400F08EFCE26A1C4B1B68DB6A6A
:1038B0009A42DCD301221A4B1A60D8E70CB1FFF709
:1038C00033FD184B1C6874B9154B1B68CBB14FF016
:1038D0008052154B1A60BFF34F8FBFF36F8F0124D7
:1038E000C0E7013C07D0FFF717FF0028F9D00122FD
:1038F0000B4B1A60F5E700220A4B1A60E4E700243C
:10390000B0E70024AEE700BF644D0020584D002012
:10391000A44D00206C4D0020F44C0020E84C002009
:10392000E84D0020604D002004ED00E010B5A8B186
:103930000446104B1B6843B14FF0A00383F311887A
:10394000BFF36F8FBFF34F8FFEE7FFF7D7FE002166
:103950002046FFF717FEFFF76BFF00E0002038B9A5
:103960004FF08052044B1A60BFF34F8FBFF36F8F3D
:1039700010BD00BF644D002004ED00E0204B1B682B
:10398000C3B900221F4B1A601F4B1B68B3FA83F3A5
:10399000DBB2C3F11F0303EB83018A001B498A5882
:1039A00062B94FF0A00383F31188BFF36F8FBFF3A9
:1039B0004F8FFEE70122134B1A60704710B4134873
:1039C0009A00D418A10001444C6864684C601A4401
:1039D00091000831084484420AD003EB83039A0023
:1039E0000A4B13445B68DA68094B1A6010BC7047D5
:1039F000606803EB83029100044A0A445060ECE7DC
:103A0000644D0020E84D00206C4D0020F44C002057
:103A1000E84C002040B94FF0A00383F31188BFF3B6
:103A20006F8FBFF34F8FFEE710B50C46044B19683C
:103A3000183100F0D3FB01212046FFF7A3FD10BD94
:103A4000E84C002038B5C368DC6824B304F11805DD
:103A5000284600F0DDFB184B1B682BBB251D2846B4
:103A600000F0D6FBE36A01229A4014490868024339
:103A70000A6003EB83039A0029461148104400F0C2
:103A8000A1FBE26A0F4B1B68DB6A9A4211D9012045
:103A90000D4B186038BD4FF0A00383F31188BFF3BE
:103AA0006F8FBFF34F8FFEE72946084800F08AFB6F
:103AB000E7E7002038BD00BF644D00206C4D0020BA
:103AC000F44C0020E84C0020E84D0020A44D0020DC
:103AD000034B1B680360034B1B684360704700BFC8
:103AE000A04D0020E44D0020F8B5E0B1054619B323
:103AF0000C4600F0B7F91A4B18686968421A236837
:103B0000B3F1FF3F28D02F68164E3668B74201D078
:103B1000884223D29A4218D300232360012400F064
:103B2000C3F92046F8BD4FF0A00383F31188BFF31B
:103B30006F8FBFF34F8FFEE74FF0A00383F3118821
:103B4000BFF36F8FBFF34F8FFEE79B1A23602846AA
:103B5000FFF7BEFF0024E2E70024E0E70124DEE7F0
:103B6000E44D0020A04D00200122014B1A60704757
:103B7000E84D0020002850D038B50446C26A2849D4
:103B80000968C96A8A423ED28169002905DB244955
:103B90000968C96AC1F105018161606902EB8202AD
:103BA0009100204A0A44904205D01D4A1268D26A08
:103BB000E262012038BD251D284600F029FB68B9C6
:103BC000E36A03EB83018A0016498A5832B901225D
:103BD0009A4015490B6823EA02030B60104B1B68DF
:103BE000DB6AE362012404FA03F20F490868024326
:103BF0000A6003EB83039A0029460A48104400F048
:103C0000E1FA204638BD026C054B1B68DB6A9A421C
:103C100001D2012038BD002038BD0020704700BF10
:103C2000E84C0020F44C00206C4D002000284AD0C5
:103C300038B50446274A1268904208D04FF0A003D6
:103C400083F31188BFF36F8FBFF34F8FFEE7426C92
:103C500042B94FF0A00383F31188BFF36F8FBFF316
:103C60004F8FFEE7013A4264C06A216C88422CD033
:103C70006ABB251D284600F0CBFA70B9E26A02EB58
:103C800082018B001449CB583BB9012303FA02F29D
:103C900012490B6823EA02030B60236CE362C3F151
:103CA0000502A261012404FA03F20C4908680243E8
:103CB0000A6003EB83039A0029460748104400F08A
:103CC00081FA204638BD00207047002038BD002012
:103CD00038BD00BFE84C0020F44C00206C4D0020A3
:103CE000002856D038B50446406C40B94FF0A003C8
:103CF00083F31188BFF36F8FBFF34F8FFEE7226C02
:103D00008A4200D20A46E16A8A4201D0012800D0E4
:103D100038BD20480068844208D14FF0A00383F3E7
:103D20001188BFF36F8FBFF34F8FFEE7E262A06988
:103D3000002802DBC2F10502A261636901EB810187
:103D40008800154A02449342E2D1251D284600F01E
:103D50005FFA70B9E26A02EB82018B000E49CB5820
:103D60003BB9012303FA02F20C490B6823EA020370
:103D70000B60E36A01229A400849086802430A601E
:103D800003EB83039A0029460348104400F01AFA13
:103D9000BEE77047E84C0020F44C00206C4D00203A
:103DA000054B1B6823B1044B1A68536C01335364F1
:103DB000014B1868704700BFE84C002082B0002318
:103DC00001930D4B1B68B3F1FF3F08D04FF0A003E8
:103DD00083F31188BFF36F8FBFF34F8FFEE74FF070
:103DE000A00383F31188BFF36F8FBFF34F8F019B45
:103DF000002BFCD002B070476841002006480068E4
:103E0000006880F3088862B661B6BFF34F8FBFF3D6
:103E10006F8F00DF00BF000008ED00E04FF08073FF
:103E200040F8043C21F0010140F8081C034B40F825
:103E30000C3C40F8202C4038704700BFBD3D2000AE
:103E4000074B19680868B0E8F00F80F30988BFF3E2
:103E50006F8F4FF0000080F311884EF00D0E704709
:103E6000E84C00204FF0A00383F31188BFF36F8F5D
:103E7000BFF34F8F0A4A136801331360012B0DD132
:103E8000084B1B6813F0FF0F08D04FF0A00383F31B
:103E90001188BFF36F8FBFF34F8FFEE7704700BFEE
:103EA0006841002004ED00E0094B1B6843B94FF066
:103EB000A00383F31188BFF36F8FBFF34F8FFEE72B
:103EC000013B034A13600BB983F31188704700BFAD
:103ED0006841002000000000000000000000000019
:103EE000EFF30980BFF36F8F0D4B1A6820E9F00FD5
:103EF00010602DE908404FF0A00080F31188FFF713
:103F00003DFD4FF0000080F31188BDE808401968BE
:103F10000868B0E8F00F80F30988BFF36F8F70472F
:103F2000E84C002008B54FF0A00383F31188BFF3DD
:103F30006F8FBFF34F8FFFF7EFFB18B14FF0805239
:103F4000024B1A60002383F3118808BD04ED00E0E2
:103F500010B5084C00232360074A136001F0C2F932
:103F6000064BA3FB003080090138054B186007237E
:103F7000236010BD10E000E018E000E0D34D6210B7
:103F800014E000E010B582B0274B1A78D2B201924B
:103F9000FF221A701B78DBB28DF803309DF80330D6
:103FA00003F0A003214A13700722214B1A6009E095
:103FB0001F4A1368013B13609DF803305B00DBB2BE
:103FC0008DF803309DF8033013F0800FF0D1184BBB
:103FD0001B68042B08D04FF0A00383F31188BFF3B4
:103FE0006F8FBFF34F8FFEE71B0203F4E063104AAD
:103FF0001360019BDBB20C4A13700E4B1A6842F43B
:1040000060021A601A6842F060421A60FFF7A0FF6F
:104010000024094B1C60FFF7F1FEFFF7AFFCFFF730
:10402000CDFE204602B010BD00E400E0EC4D0020C3
:10403000F04D002020ED00E068410020EFF3058303
:104040000F2B0FD9104A9B5CDBB2104A12789342B7
:1040500008D24FF0A00383F31188BFF36F8FBFF333
:104060004F8FFEE70A4B1B6803F4E063094A1268AE
:10407000934208D94FF0A00383F31188BFF36F8FE9
:10408000BFF34F8FFEE77047F0E300E0EC4D0020F8
:104090000CED00E0F04D0020074B23F00703074A2A
:1040A000136000205060064A40F6F87151601060BD
:1040B00059601A60704700BFFC4D0020005E002070
:1040C000F45D002070B50446FFF718FB224B1B6817
:1040D0007BB134B1083414F0070F02D024F0070488
:1040E0000834621E40F6F6739A4230D81B4D2B6896
:1040F00007E0FFF7D1FF0122174B1A60E9E71D46E1
:10410000134659688C4202D91A68002AF7D1144A1A
:1041100093421ED02E6808361A682A60091B10299F
:104120000CD91D1969605C606C680C4900E011468F
:104130000A6850688442FAD82A600D605968094AB2
:1041400013685B1A1360FFF773FB304670BD0026DF
:10415000F9E70026F7E700BFFC5D0020005E0020C5
:10416000F45D00206C410020C0B170B50546A0F19F
:104170000806FFF7C3FA55F8044C094A00E01A464E
:10418000136859688C42FAD845F8083C1660054A0D
:1041900013681C441460FFF74BFB70BD704700BFF1
:1041A000005E00206C41002000F1080343604FF0E6
:1041B000FF328260C3600361002303607047002305
:1041C0000361704743684B609A688A609A685160DF
:1041D00099600861036801330360704730B40D686B
:1041E000B5F1FF3F02D000F1080202E0026904E0ED
:1041F0001A4653681C68A542FAD253684B6099600E
:104200008A605160086103680133036030BC704705
:10421000036942688168916081684A605A68904287
:1042200006D0002202611A68013A1A6018687047C5
:104230005960F6E7FEE700000C4B98420FD003F5FB
:10424000805398420DD003F5805398420BD003F56C
:104250008053984201D00020704701207047012010
:104260007047012070470120704700BF00900D404B
:1042700010B50446FFF7E0FF60B1104B9C4218D028
:104280000DD90F4B9C4216D003F580539C420ED1A2
:1042900013200BE062210B48FFF7CCFFEDE7A3F5FD
:1042A00080539C4201D1102000E0002010BD00206E
:1042B000FCE71120FAE71220F8E700BF00A00D404C
:1042C00000B00D40186A200070B504460D46164631
:1042D000FFF7B2FF90B1022E15D816F0010F17D0DC
:1042E000D4F800342B43C4F8003416F0020F14D075
:1042F000D4F820341D43C4F8205470BDB5210948BA
:10430000FFF798FFE7E7B7210648FFF793FFE4E7D9
:10431000D4F8003423EA0503E5E7D4F8203423EA8F
:104320000505E8E7186A200070B504460E461546F4
:10433000FFF782FF08B33DB1042D05D0012D03D056
:10434000022D01D0072D1ED115F0010F21D0D4F878
:1043500008343343C4F8083415F0020F1ED0D4F8E3
:1043600004343343C4F8043415F0040F1BD0D4F8DC
:104370000C341E43C4F80C6470BD40F219110C4893
:10438000FFF758FFD7E74FF48E710948FFF752FF48
:10439000DAE7D4F8083423EA0603DBE7D4F8043478
:1043A00023EA0603DEE7D4F80C3423EA0606E1E745
:1043B000186A200038B505460C46FFF73DFF28B1C6
:1043C000D5F810341C43C5F8104438BD40F26D11C7
:1043D0000148FFF72FFFF3E7186A200038B50446BD
:1043E0000D46FFF729FF18B145B1D4F8180438BDC0
:1043F0004FF4D5710348FFF71DFFF5E7D4F8140417
:10440000F5E700BF186A200038B504460D46FFF7EF
:1044100013FF10B1C4F81C5438BD4FF4EC710248BE
:10442000FFF708FFF6E700BF186A200038B504461A
:104430000D46FFF701FF50B12046FFF719FF044674
:10444000294600F035FB204600F0B8FA38BD4FF49D
:10445000FD710248FFF7EEFEEEE700BF186A20008C
:1044600070B504460D461646FFF7E6FE10B144F857
:10447000256070BD4FF41C710148FFF7DBFEF6E7C5
:10448000186A200038B504460D46FFF7D5FE50B136
:10449000002229462046FFF717FF00222946204622
:1044A00000F0AEFC38BD4FF424710248FFF7C2FEA5
:1044B000EEE700BF186A200038B504460D46FFF746
:1044C000BBFE50B1012229462046FFF7FDFE002227
:1044D0002946204600F094FC38BD40F2B521024840
:1044E000FFF7A8FEEEE700BF186A200038B50446C3
:1044F0000D46FFF7A1FE50B1022229462046FFF7E4
:10450000E3FE00222946204600F07AFC38BD40F246
:10451000DD210248FFF78EFEEEE700BF186A20009B
:1045200038B504460D46FFF787FE50B102222946F2
:104530002046FFF7C9FE00222946204600F060FC15
:1045400038BD40F206310248FFF774FEEEE700BFC7
:10455000186A200038B504460D46FFF76DFE68B1B5
:104560000E4B9C4210D0022229462046FFF7ACFE9B
:1045700000222946204600F043FC38BD40F25B3162
:104580000748FFF757FEEBE715F00F0FEBD04FF49E
:1045900057710348FFF74EFEE5E700BF00B00D403E
:1045A000186A200038B504460D46FFF745FE68B18D
:1045B0000E4B9C4210D0022229462046FFF784FE73
:1045C00008222946204600F01BFC38BD40F2853108
:1045D0000748FFF72FFEEBE715F00F0FEBD040F287
:1045E00086310348FFF726FEE5E700BF00B00D4027
:1045F000186A200070B504460D461646FFF71CFEEB
:10460000A8B1012E19D8164B9C421CD00023154A84
:1046100094421AD0144A944219D09D40012E18D0C9
:10462000D4F8043723EA0505C4F8045770BD40F2F6
:10463000BE310E48FFF7FEFDE3E74FF470710B4803
:10464000FFF7F8FDDFE70823E1E71023E2E718238F
:10465000E3E7D4F804371D43C4F80457E6E700BF86
:1046600000A00D4000B00D4000C00D40186A2000B1
:1046700038B504460D46FFF7DFFD78B1104B9C427C
:1046800012D000230F4A944210D00F4A94420FD008
:1046900085B1D4F81807D840C0B238BD40F2BA414D
:1046A0000A48FFF7C7FDE9E70823EBE71023ECE72B
:1046B0001823EDE7D4F82007D840C0B2EDE700BFDB
:1046C00000A00D4000B00D4000C00D40186A200051
:1046D00038B504460D46FFF7AFFD80B10E4B9C4246
:1046E00013D000210D4B9C4211D00D4B9C4210D099
:1046F0008D40D4F818172943C4F8181738BD40F274
:10470000FB410848FFF796FDE8E70821EAE710219A
:10471000EBE71821ECE700BF00A00D4000B00D4012
:1047200000C00D40186A200010B5044610F03F0F7D
:1047300004D0054B18682043186010BD40F2335177
:104740000248FFF777FDF4E794200D40186A200037
:104750000C4B98420FD003F5805398420DD003F5CF
:10476000805398420BD003F58053984201D000202B
:1047700070470120704701207047012070470120D9
:10478000704700BF0000034070B505460C46164652
:10479000FFF7DEFFA8B1FF2C06D0B4F57F4F03D0A2
:1047A0004FF6FF739C4212D11A4B9D4217D003F56E
:1047B00080539D421BD003F580539D420DD033257D
:1047C0000EE040F239311448FFF734FDE3E740F2E0
:1047D0003B311148FFF72EFDE6E7272500E02325B2
:1047E00014F0FF0F05D114F47F4F0AD170BD2525B9
:1047F000F6E73146284600F05BF9284600F0DEF87F
:10480000F1E701353146284600F052F9284600F01C
:10481000D5F8EBE700000340246A200038B50446D1
:104820000D46FFF795FF10B13DB1206A38BD40F24B
:1048300004410348FFF7FEFCF6E7E069F6E700BF36
:10484000246A200038B504460D46FFF781FF08B101
:10485000656238BD40F22E410148FFF7EBFCF7E7F7
:10486000246A2000024A136843F010031360704763
:104870002000024038B504460D46FFF7F3FF5DB156
:10488000064B03EB83039A001444013CB4FBF2F49F
:10489000013C034B1C6038BD024BF2E7801A060056
:1048A0000C000240A086010008B50146182000F067
:1048B000FFF8182000F082F808BD000038B5054662
:1048C0000C4610F0800F04D144EA4504044B1C60F0
:1048D00038BD4FF41D710348FFF7ACFCF4E700BF8F
:1048E00000000240346A2000044B1B6813F0010FE3
:1048F00001D0012070470020704700BF0400024033
:1049000010B5044607280BD0032809D0012807D08A
:10491000052805D0042803D00B2801D0092802D18E
:10492000044B1C6010BD40F2DA210348FFF782FC03
:10493000F6E700BF04000240346A2000074B186805
:1049400010F0010F05D110F0120F04D000F01C0080
:104950007047002070470020704700BF04000240ED
:10496000014B1860704700BF08000240014B1868F7
:10497000704700BF0800024038B504460D46031FCB
:104980003B2B10D8A2080B4B53F822100B6804F0F5
:104990000304E400FF22A24023EA020305FA04F420
:1049A0001C430C6038BD4FF4DE710348FFF742FC36
:1049B000E8E700BF646A2000406A200010B50446A2
:1049C0003F2814D8042C18D0052C1CD0062C20D03D
:1049D0000F2C24D00F2C15D9103C04F01F016409B2
:1049E000124B53F8242001238B4013600AE04FF44C
:1049F000FB710F48FFF71EFCE4E70E4A136843F40F
:104A00008033136010BD0B4A136843F40033136006
:104A1000F8E7084A136843F480231360F2E7064A74
:104A2000136843F002031360ECE700BF506A2000F4
:104A3000406A200024ED00E010E000E010B50446DC
:104A40003F2810D80E2C14D00F2C18D00F2C15D9AD
:104A5000103C04F01F0164090C4B53F8242001237F
:104A60008B4013600AE040F2AE210948FFF7E2FBF9
:104A7000E8E7084A136843F00063136010BD054A75
:104A8000136843F000731360F8E700BF086B200061
:104A9000406A200004ED00E0044B1B6813F0010F96
:104AA00001D0012070470020704700BF98200D40C2
:104AB00070B504460E463F2813D8FFF7EDFFA8B1A6
:104AC000104B1B68104DAB4218D00E4B18680023DA
:104AD0003F2B11D850F823100B4A42F82310013312
:104AE000F6E7FE210948FFF7A5FBE6E74FF48171E1
:104AF0000648FFF79FFBE3E7024B1D60024B43F8BC
:104B0000246070BD08ED00E000400020406A2000F5
:104B100070B504460D461646244B98420BD003F55B
:104B20008053984207D003F58053984203D003F591
:104B30008053984202D135B1002315E0FB211C4877
:104B4000FFF778FBF7E7FC211948FFF773FBF3E762
:104B5000A2F58052944203D1164A52F8232001E074
:104B6000A2F5A04216600133072B1ED845FA03F2C6
:104B700012F0010FF7D0104A94420ED0E8D90F4A34
:104B800094420ED002F58052944203D10C4A52F85E
:104B90002320E7E7A2F50042E4E70A4A52F823207F
:104BA000E0E7094A52F82320DCE770BD00900D4091
:104BB0001C6B2000486B200000A00D4000B00D4091
:104BC000086C2000886B2000C86B200070B505467B
:104BD0000C461646854B98420BD003F580539842FD
:104BE00007D003F58053984203D003F580539842D1
:104BF00073D1631EDBB2012B0BD9042C09D0082C16
:104C000007D0102C05D0202C03D0402C01D0802CB4
:104C100069D1774B9E423BD004339E4238D0043357
:104C20009E4235D004339E4232D004339E422FD070
:104C300004339E422CD004339E4229D004339E423A
:104C400026D004339E4223D004339E4220D0043326
:104C50009E421DD004339E421AD004339E4217D088
:104C600004339E4214D004339E4211D004339E423A
:104C70000ED004339E420BD004339E4208D004333E
:104C80009E4205D004339E4202D004339E4230D16E
:104C9000584B9D4259D032D9574B9D4276D003F59F
:104CA00080539D4243D1012C00F091800023022CBF
:104CB00000F08F80042C00F08E80082C00F08D8096
:104CC000102C00F08C80202C00F08B80402C00F009
:104CD0008A80802C29D11F2327E040F26D1147489C
:104CE000FFF7A8FA85E740F271114448FFF7A2FAEE
:104CF0008FE74FF4C3714148FFF79CFAC8E7A3F56B
:104D000080539D4210D1022C13D00023042C12D0CA
:104D1000082C12D0102C12D0202C12D0402C12D0E3
:104D2000802C02D1072300E00023336070BD0023F4
:104D3000FBE70123EAE70223EAE70323EAE7042388
:104D4000EAE70523EAE70623EAE7012C10D000236F
:104D5000022C0FD0042C0FD0082C0FD0102C0FD009
:104D6000202C0FD0402C0FD0802CDED10F23DCE77D
:104D70000823EDE70923EDE70A23EDE70B23EDE731
:104D80000C23EDE70D23EDE70E23EDE7012C10D00A
:104D90000023022C0FD0042C0FD0082C0FD0102C85
:104DA0000FD0202C0FD0402C0FD0802CBDD117233A
:104DB000BBE71023EDE71123EDE71223EDE7132303
:104DC000EDE71423EDE71523EDE71623EDE71823B0
:104DD0006DE719236EE71A236FE71B2370E71C2387
:104DE00071E71D2372E71E2373E700BF00900D409B
:104DF00000410D4000A00D4000B00D401C6B200094
:104E000070B504460D461646364B98420BD003F556
:104E10008053984207D003F58053984203D003F59E
:104E2000805398420ED19DB1082E06D0042E04D096
:104E3000022E02D0012E00D086B92B4B9C4213D0FB
:104E400000232CE040F259212848FFF7F3F9EAE764
:104E500040F25A212548FFF7EDF9E5E740F25F21DE
:104E60002248FFF7E7F9E8E715F00F0FE8D0042E26
:104E700003D0022E01D0012EE2D140F266211B4860
:104E8000FFF7D8F9DCE7A2F58052944203D1184A23
:104E900052F8232001E0A2F59F4216600133072B50
:104EA0001ED845FA03F212F0010FF7D0114A9442CE
:104EB0000ED0E8D90C4A94420ED002F580529442AA
:104EC00003D10D4A52F82320E7E7A2F5FF42E4E7B9
:104ED0000A4A52F82320E0E7094A52F82320DCE787
:104EE00070BD00BF00900D4000B00D401C6B200055
:104EF000286B200000A00D40E86B2000686B2000AC
:104F0000A86B2000074B1B68074A106843EA002380
:104F10000432106843EA00430432106843EA006038
:104F2000704700BF40500D4044500D402DE9F843FC
:104F30000546894617469846089C099E354B984277
:104F400003D003F58053984246D14FB1022F07D0CA
:104F5000012F05D0032F03D0102F01D0202F40D1D7
:104F6000B8F1020F42D8B8F1000F02D1B4EB590FDB
:104F70000CD9B8F1000F05D0274BA3FB0923B4EBE4
:104F8000D30F03D986212548FFF754F9B9FBF4F470
:104F9000B4F57E4F2FD8331F0C2B31D8B8F1020F48
:104FA00033D00023B8F1000F31D1002213436B60DE
:104FB00000220232B4FBF2F3013BFF2BF9D82A6145
:104FC000B901C9B207F0300741EA03233B43013E70
:104FD00033432B60BDE8F8837B211048FFF72AF9A3
:104FE000B3E781210D48FFF725F9B9E784210B4884
:104FF000FFF720F9B7E787210848FFF71BF9CAE751
:1050000088210648FFF716F9C8E70823CAE70422F3
:10501000CCE700BF00800040ABAAAAAA286C200001
:1050200010B50446084B984203D003F580539842CC
:1050300004D1636843F00203636010BDB9210348E3
:10504000FFF7F8F8F5E700BF00800040286C20006B
:1050500010B50446084B984203D003F5805398429C
:1050600004D1636823F00203636010BDD2210348BA
:10507000FFF7E0F8F5E700BF00800040286C200053
:1050800038B504460D460D4B984203D003F58053C6
:1050900098420BD1094B9C420DD032242946204620
:1050A000FFF706FD2046FFF789FC38BDF6210448CE
:1050B000FFF7C0F8EEE71724F0E700BF00800040DC
:1050C000286C200038B504460D46094B984203D0A1
:1050D00003F58053984202D13DB1E06938BD40F2FA
:1050E00081110448FFF7A6F8F6E7A069F6E700BFCC
:1050F00000800040286C200038B504460D46074B60
:10510000984203D003F58053984201D1256238BDFF
:105110004FF4D8710248FFF78DF8F7E700800040A0
:10512000286C200038B504460D46104B984203D039
:1051300003F5805398420DD1226802F00F026FF000
:10514000010393402B420BD1E36813F0020FFBD015
:10515000A56038BD4FF4E8710548FFF76BF8EBE741
:105160004FF4E9710248FFF765F8EDE70080004071
:10517000286C200038B504460D460A4B984203D0EF
:1051800003F58053984206D1E36813F0040FFBD077
:10519000A3682B6038BD40F227210348FFF74AF887
:1051A000F2E700BF00800040286C200038B50446BC
:1051B0000D46084B984203D003F58053984203D123
:1051C000616A2943616238BD40F27D210248FFF7E0
:1051D00031F8F5E700800040286C200038B504461F
:1051E0000D46094B984203D003F58053984204D1F1
:1051F000616A21EA0501616238BD4FF427710348F5
:10520000FFF718F8F4E700BF00800040286C20008A
:1052100010B50446084B984203D003F580539842DA
:1052200003D1E068C0F3001010BD40F2B92103487B
:10523000FFF700F8F5E700BF00800040286C200071
:1052400038B504460D460C4B984203D003F5805305
:10525000984204D1012D08D8C4F8C85F38BD40F287
:10526000DD210648FEF7E6FFF4E740F2DE210348C1
:10527000FEF7E0FFF0E700BF00800040286C200050
:1052800003281ED9B0F5807F1DD040F2011398424B
:105290001BD0B0F5007F1AD040F20123984218D0FD
:1052A000B0F5407F17D0B0F5806F16D040F20143C3
:1052B000984214D0B0F5A06F01D0002070470120B3
:1052C000704701207047012070470120704701207E
:1052D000704701207047012070470120704701206E
:1052E000704700000E4B1B6803F00703072B05D81F
:1052F000DFE803F01406080A0C0E101200207047B5
:105300000848704708487047084870470848704781
:105310000848704708487047084870470848704771
:1053200004200D400024F40000127A0000093D0022
:1053300080841E0040420F0020A1070090D003008F
:105340000048E80110B50446072807D8064B18683E
:1053500020F4E06040EA0420186010BD4FF4B07102
:105360000248FEF767FFF1E700200D40346C200093
:105370000E4B1B68C3F30223072B05D8DFE803F0AD
:105380001406080A0C0E10120020704708487047D7
:1053900008487047084870470848704708487047F1
:1053A00008487047084870470848704704200D4077
:1053B0000024F40000127A0000093D0080841E00E1
:1053C00040420F0020A1070090D003000048E801F0
:1053D00001387FF4FDAF704770B506460D461446A0
:1053E000072A01D822B919B1D9211B48FEF722FF9B
:1053F00025B91A4A136843F400131360174B1A684F
:10540000174B13400EB943F08073BDB14FF4803594
:105410002B432343114A1360124B1B68002403F4EF
:105420008033AB420CD04FF6FE739C4208D810205C
:10543000FFF7CEFF0B4B1B680134F0E70025E7E7D1
:105440004FF6FE739C4200D870BD4FF48171024844
:10545000FEF7F0FEF8E700BF346C200000200D409E
:10546000F8FFFEFE04200D40014B08221A60FEE703
:1054700074200D4070B51B4B1D6805F4E06615F0F7
:10548000070500D056B9184B1A680DBB01231A4303
:1054900006BB4FF480731343134A1360134C236805
:1054A00043F00403236000F061FB236823F004034E
:1054B000236005B15EB90C4B1A686DB96FF0070334
:1054C0001A4066B96FF4E0631340074A136070BD79
:1054D0000023DCE70023DEE74FF0FF33F0E74FF077
:1054E000FF33F1E704200D4000200D4010ED00E0F7
:1054F00010B582B00446FFF7C3FEC0B1B4F5A06F8B
:105500001BD0C4F30322134B53F82220116804F07C
:105510000F04012303FA04F42143116000230193D3
:10552000019B0F2B0FD8019B01330193F8E740F249
:10553000AA210948FEF77EFEE0E740F2AB210648CB
:10554000FEF778FEDDE7136823EA0404146002B076
:1055500010BD00BF8C6C2000346C200010B50446D8
:10556000FFF78EFE68B1C4F30322094B53F82210F3
:105570000B6804F00F04012202FA04F41C430C60CF
:1055800010BD40F2D7210348FEF754FEEBE700BF01
:105590005C6C2000346C200010B50446FFF770FEF0
:1055A00068B1C4F30322094B53F822100B6804F0CE
:1055B0000F04012202FA04F41C430C6010BD40F2F7
:1055C0001A310348FEF736FEEBE700BF746C20008B
:1055D000346C200010B50446FFF752FE70B1C4F3DE
:1055E0000322094B53F822100B6804F00F04012228
:1055F00002FA04F423EA04040C6010BD40F287317F
:105600000248FEF717FEEAE7446C2000346C2000E5
:10561000064B984207D003F58053984201D00020F2
:105620007047012070470120704700BF00C0004054
:1056300070B506460C461546FFF7EAFF68B1042C24
:1056400010D83DB1082D05D0102D03D0182D01D054
:10565000202D0CD12C43746370BDA8210648FEF7A1
:10566000E9FDECE7AD210448FEF7E4FDE9E7B221EE
:105670000148FEF7DFFDEDE7A06C200010B5044601
:10568000FFF7C6FF50B1E36A43F01003E362236BF8
:1056900043F4407343F00103236310BD40F2A311B0
:1056A0000148FEF7C7FDEEE7A06C200010B50446E8
:1056B000FFF7AEFF70B1A36913F0080FFBD1E36AE7
:1056C00023F01003E362236B23F4407323F0010300
:1056D000236310BD40F2C3110148FEF7ABFDEAE7BA
:1056E000A06C2000F8B505460C4616461F46FFF78D
:1056F0008FFFC0B1EEB12846FFF7D8FFB4EB061F0D
:105700001DD22B6B43F020032B637608E400B4FB1F
:10571000F6F40134E3096B62C4F34504AC62EF6252
:105720000023AB61F8BD40F215110748FEF782FD7A
:10573000E0E74FF48B710448FEF77CFDDBE72B6B51
:1057400023F020032B63E1E7A06C200010B5044692
:10575000FFF75EFF20B1E36A43F01003E36210BD80
:1057600040F2E9110148FEF765FDF4E7A06C200066
:1057700038B505460C46FFF74BFF40B1102C00D062
:105780005CB9296B21F010012143296338BD4FF426
:1057900018710548FEF74EFDF0E740F2622102481D
:1057A000FEF748FDEDE700BFA06C200010B50446F1
:1057B000FFF72EFF30B1A36913F0100F0CBF0120CB
:1057C000002010BD40F29F210148FEF733FDF2E7B3
:1057D000A06C200010B50446FFF71AFF28B1A3699A
:1057E00013F0100F07D1206810BD40F2D7210348F5
:1057F000FEF720FDF3E74FF0FF30F5E7A06C200047
:1058000010B50446FFF704FF28B1A36913F0100F89
:10581000FBD1206810BD4FF440710248FEF70AFD2D
:10582000F3E700BFA06C200038B504460D46FFF733
:10583000EFFE28B1A36913F0200FFBD1256038BD1E
:105840004FF455710148FEF7F5FCF3E7A06C20001A
:1058500010B50446FFF7DCFE18B1A069C0F3C00024
:1058600010BD4FF466710248FEF7E4FCF5E700BF97
:10587000A06C200038B504460D46FFF7C9FE58B1AC
:10588000094B9C420ED0162429462046FFF710F9FA
:105890002046FFF793F838BD40F2BB310348FEF7CE
:1058A000C9FCEDE71524EFE700C00040A06C200024
:1058B00038B504460D46FFF7ABFE20B1A16B21EAD7
:1058C0000501A16338BD40F237410248FEF7B2FC42
:1058D000F4E700BFA06C200038B504460D46FFF782
:1058E00097FE10B13DB1206C38BD40F255410348E0
:1058F000FEF7A0FCF6E7E06BF6E700BFA06C200027
:1059000038B504460D46FFF783FE08B1656438BD1F
:1059100040F285410148FEF78DFCF7E7A06C2000BE
:1059200038B505460C46FFF773FE20B1012C08D8A8
:10593000C5F8C84F38BD40F22F510548FEF77AFC34
:10594000F4E74FF4A6610248FEF774FCF0E700BFED
:10595000A06C200010B504464FF6E073184207D142
:1059600004F01F04012303FA04F4044B1C6010BD6F
:105970009A210348FEF75EFCF2E700BF28F00F40D3
:10598000AC6C200038B504460D464FF6C073184283
:105990000ED10D4B1B688BB104F03F040A4B186805
:1059A00000EB04108368094919402943816038BD20
:1059B00040F261210648FEF73DFCEAE740F2622131
:1059C0000348FEF737FCE7E708F00F40F73FFC001D
:1059D000AC6C20002DE9F84F83460D4616461F4655
:1059E000DDF828804FF6C073184247D13A4B1B6848
:1059F000002B49D0062D4DD8B146B6F1005F4FD3EC
:105A0000BA46B7F1005F51D308F1FF34B4F5806FA7
:105A100052D20BF03F0C304B1A684FEA0C1E02EBCF
:105A20000E00836823F47F5323F037031BF0200F0D
:105A300005D0042D01D0062D01D145F0010545EA20
:105A40000411194301F04063B3F1406F04D09E0E7E
:105A500008FA06F64E44013E42F80E6001F040435B
:105A6000B3F1404F33D0042D2CD0062D2AD09B0FFC
:105A700008FA03F8D04408F1FF3728E040F2D121BA
:105A80001648FEF7D7FBB1E740F2D2211348FEF7E4
:105A9000D1FBAFE740F2D3211048FEF7CBFBABE7D9
:105AA0004FF435710D48FEF7C5FBA9E740F2D5214B
:105AB0000A48FEF7BFFBA7E740F2D6210748FEF7EA
:105AC000B9FBA6E74CF0200702EB07170C3747603D
:105AD0008160BDE8F88F00BF08F00F40AC6C20007B
