:020000040020DA
:10000000606400208D2C2000312D2000492C200020
:100010004D2C20004D2C20004D2C20000000000015
:10002000000000000000000000000000F14320007C
:100030004D2C20000000000091442000D5442000F9
:100040004D2C20004D2C20004D2C20004D2C20004C
:10005000000000004D2C20004D2C20004D2C2000D5
:100060004D2C2000000000000000000000000000F7
:1000700000000000000000004D2C200000000000E7
:1000800000000000000000004D2C20004D2C20003E
:100090004D2C20004D2C20004D2C20004D2C2000FC
:1000A0004D2C20004D2C20004D2C20004D2C2000EC
:1000B0004D2C20004D2C20004D2C20004D2C2000DC
:1000C0004D2C20004D2C20004D2C20004D2C2000CC
:1000D0004D2C200000000000000000000000000087
:1000E0000000000000000000000000000000000010
:1000F0004D2C2000000000004D2C20004D2C200035
:1001000010B5054C237833B9044B13B10448AFF351
:1001100000800123237010BD08480020000000006B
:10012000E0FF27000C4B43B10C4810B50C49AFF36E
:1001300000800C48036823B910BD0A48036833B92E
:100140007047094B002BF7D0BDE810401847064B0D
:10015000002BF5D0184700BF00000000E0FF27008B
:100160000C480020084800200000000008B5436843
:10017000984708BD012800D070474FF6FF73994299
:10018000FAD12DE9F04182B0B04AB14B1360B149C8
:100190005160B14A1360B1495160B14A1360B1492D
:1001A0005160B14A1360B14B536000260196B04BC9
:1001B000009333468022AF49AF4803F073F80196AD
:1001C000AE4B009301234022AD49AE4803F06AF8DC
:1001D0000196AD4B009302238022AC49AC4803F05A
:1001E00061F8AC4C3146204603F040F8AA4FDFF8E6
:1001F000DC823A464146204600F024FEA749A84842
:1002000002F0A1FDA74CA849204602F067FE3A463D
:10021000A649204600F016FEA54D2146281D01F0F6
:100220009AFB214605F11C0001F095FB214605F1E2
:10023000340001F090FB214605F14C0001F08BFBEE
:10024000214605F1640001F086FB214605F17C00A2
:1002500001F081FB214605F1940001F07CFB214671
:1002600005F1AC0001F077FB214605F1C40001F077
:1002700072FB214605F1DC0001F06DFB214605F122
:10028000F40001F068FB214605F5867001F063FB80
:10029000214605F5927001F05EFB214605F59E7042
:1002A00001F059FB214605F5AA7001F054FB2146E7
:1002B00005F5B67001F04FFB214605F5C27001F05F
:1002C0004AFB214605F5CE7001F045FB214605F5B8
:1002D000DA7001F040FB214605F5E67001F03BFBCA
:1002E000214605F5F27001F036FB214605F5FE705A
:1002F00001F031FB214605F5057001F02CFB21468C
:1003000005F50B7001F027FB214605F5117001F092
:1003100022FB214605F5177001F01DFB214605F56E
:100320001D7001F018FB214605F5237001F013FB49
:10033000214605F5297001F00EFB214605F52F70C9
:1003400001F009FB214605F5357001F004FB21465B
:1003500005F53B7001F0FFFA214605F5417001F00B
:10036000FAFA214605F5477001F0F5FA214605F540
:100370004D7001F0F0FA214605F5537001F0EBFAEB
:10038000214605F5597001F0E6FA214605F55F7042
:1003900001F0E1FA214605F5657001F0DCFA21462D
:1003A00005F56B7001F0D7FA214605F5717001F083
:1003B000D2FA214605F5777001F0CDFA214605F510
:1003C0007D7001F0C8FA214605F20C4001F0C3FA35
:1003D000214605F2244001F0BEFA214605F23C40D8
:1003E00001F0B9FA214605F2544001F0B4FA214671
:1003F00005F26C4001F0AFFA214605F2844001F0AD
:10040000AAFA214605F29C4001F0A5FA29492A489A
:1004100001F0F9FB29492A4801F0E6FD294C314653
:10042000204602F023FF3A464146204600F00AFDEE
:10043000254C3146204602F019FF3A4641462046F7
:1004400000F000FD02B0BDE8F08100BFA44800202C
:10045000C0632000FD0620009C480020150C2000F1
:1004600094480020ED0620008C480020FD0B200061
:10047000C90B2000F4632000D04800200D072000A5
:10048000FC6320006C480020FD0C20000864200064
:10049000584800208048002000410020144A0020D5
:1004A000B8480020BC480020A0652000DD042000E2
:1004B00004410020384A0020B8450020286420006C
:1004C000B04800208848002084480020D104200043
:1004D00010B5044602F08FFE204610BD10B504464C
:1004E000043002F088FE204610BD000030B583B015
:1004F000164800F08FFC164C204600F061FE2046A6
:1005000000F030FFF0B1124C124B134A002120468C
:1005100000F0BEFE114B124A0021204600F0ACFE56
:10052000204600F0C1FE002500950E4B0E4A2946DC
:10053000204601F027F81F222946204600F0A8FF98
:1005400003B030BD094800F065FCDCE758662000C8
:10055000444900209C480020A44800208C480020EA
:100560009448002094652000086E200064662000F6
:1005700030B585B00024354B1C60312C0EDC34497D
:1005800063002344DA008D184FF0FF338B50281D91
:1005900001F0DDF92F4B6B610134EEE72E4800F0DE
:1005A00039FC2E4802F092FC23E002A92B4802F00D
:1005B00065FD23E0254B1B6803EB4303DA00244869
:1005C00010440DF10601043001F01DFA00282FD06F
:1005D0001E4B1B68BDF80620D4B203EB4300C100DC
:1005E0001B48445013B9120A1D490A800133174AA7
:1005F0001360164B1B68312BD7DD0020E0B1194882
:1006000000F0B2FB08210DEB010000F00DFC0F4BD8
:100610001B6803EB4303DA000D48104402A90430C1
:1006200001F02DFA0028C5D10F4800F0F3FBE0E7F8
:100630000E4800F0EFFBDCE7044B1B680BB105B084
:1006400030BD0B4800F0E6FBF9E700BFAC480020E6
:100650000441002018FCFFFFB4652000BC480020C6
:10066000B4450020D8652000F46520001466200001
:100670002866200030B583B0002500E00135174B17
:100680001B689D421EDA05EB4502D300144C1C4446
:100690000434204601F08DFA0028EFD001A920464D
:1006A00001F098F90028E9D0019A02F55643D833B1
:1006B0000C498B42E2D805EB4503D900084B0B44AB
:1006C0005A61DBE70DF10201074801F027FB18B181
:1006D000BDF80220044B5A8203B030BDAC48002064
:1006E0000441002020BF0200B845002008B50248A0
:1006F00001F058FC08BD00BFC049002008B5024801
:1007000001F050FC08BD00BFC849002008B5074CE7
:10071000204601F047FC052002F05CFD204601F078
:1007200052FC42F20B7002F055FDF0E7C449002084
:10073000F0B587B007460E463223ADF8163002F00A
:1007400045FD04461D4D0FE06B783B70AB781B02F6
:100750003380EA78134433802EE002F037FD001B2B
:1007600041F28733984226D80021154800F004FF53
:100770006421144802F046FD0028EED00DF1130369
:10078000029305AB01930DF1150300930DF11603D0
:100790000A4A00210A4801F001F80028DDD19DF83D
:1007A00013000028D9D0691C2A78074B1B889A426D
:1007B000CAD00D46D1E7002007B0F0BD2448002084
:1007C0004449002084480020B445002010B50B4B5C
:1007D0001B780B4A137050700B0A9370D170094C40
:1007E00004230021204601F081F80021204600F07A
:1007F000ABFE0021044802F005FD10BDB445002009
:1008000024480020444900208848002010B582B0C8
:1008100000212B4800F092FE00242A4B1B689C42CA
:1008200016DA294963002344DA008B18885805300A
:100830005B69264981FB0321DB17C3EB611189B298
:10084000C0B2FFF7C3FF642002F0C4FC0134E4E748
:100850001F4B598A0220FFF7B9FF642002F0BAFC4F
:100860001C4B99880320FFF7B1FF1B4800F0D2FA18
:1008700007E0184801F0A7FB164B99880320FFF703
:10088000A5FF01A90DF10700FFF752FF88B19DF800
:100890000730042BF5D10F4B9A88BDF804309A42EB
:1008A000EFD00C4A9380002BE3D0104601F07AFB86
:1008B000E2E70021024800F03BFE02B010BD00BF9D
:1008C00044490020AC480020044100201F85EB5122
:1008D000B8450020B04800201064200038B52748F3
:1008E00000F098FA0024264B1B689C4225DA092068
:1008F00000F02CFA0A21204600F060FA3A2000F0BD
:1009000025FA204863002344DA0085180A2180581C
:1009100000F054FA3A2000F019FA0821681800F0A3
:1009200031FA3A2000F012FA0A21686900F046FA1A
:10093000002000F06FFA0134D5E7134800F06AFA9E
:10094000092000F003FA114C0A21207C00F036FA4D
:100950003A2000F0FBF90A21608A00F02FFA00200B
:1009600000F058FA0A4800F0FFF90A4B9B881BB9BF
:10097000094800F04FFA38BD0848FAE75C652000E6
:10098000AC4800200441002074652000B8450020D8
:1009900084652000B0480020506520004865200094
:1009A00030B583B004460422704905F0B3FB00283B
:1009B00034D007226E49204605F0ACFB00283CD01D
:1009C0000C226C49204605F0A5FB002871D06A492D
:1009D000204605F08DFB002800F0A88067492046DE
:1009E00005F086FB002800F0A7806549204605F049
:1009F0007FFB002800F0A6806249204605F078FBC6
:100A0000002800F0AA806049204605F071FB90B9EB
:100A10005E4800F0FFF9FFF7F9FE0CE05C4800F0DB
:100A2000F9F95C4800F0A0F90A215B4B188800F046
:100A300002FAFFF753FF03B030BD0A220021E01D88
:100A400005F0FAFB0446554B1B68002B08DD01A995
:100A5000534800F0D8FF38B9524800F0DBF9EAE714
:100A6000514800F0D7F9E6E79DF80430240224F05D
:100A70007F4121F0FF01194389B2ADF804104848C5
:100A800001F063F818B9494800F0C4F9D3E701A9A7
:100A9000434800F0B8FF18B9424800F0BBF9CAE774
:100AA000BDF80400000A3C4B18800A2100F0C3F98D
:100AB000C1E70A2201A904F10C0005F0BDFB0446C0
:100AC00030282FD80A220021019805F0B5FB324BBF
:100AD0001B88C1B241EA032189B2ADF8021004EBD0
:100AE0004402D300324D1D440435284601F02DF850
:100AF00018B92E4800F08EF99DE70DF10201284645
:100B000000F081FF18B9274800F084F993E79DF8B9
:100B1000020004EB4404E300254AD0500A2100F00F
:100B20008AF988E7234800F075F984E72248012311
:100B3000838001F037FA7EE71F480023838001F0AD
:100B400042FA78E71D4800F065F94FF4FA7002F0B8
:100B500041FB1B4801F03CF96DE71A4800F05AF9D7
:100B6000FFF788FDFFF7BAFE65E700BF3C64200091
:100B700070642000C4642000EC642000F464200051
:100B800000652000146520003065200038652000D5
:100B90004464200064642000B4450020AC48002078
:100BA000084100209C64200078642000B06420008C
:100BB00004410020D4642000B048002008652000D3
:100BC000904900201C65200000B59BB0094C002115
:100BD000204602F017FB204602F028FB642201A900
:100BE000054802F0B3F80028F8D001A8FFF7D8FEB6
:100BF000F4E700BF80480020B848002008B503484B
:100C000001F0E1F9024802F019FB08BDC0490020DB
:100C10008448002008B5034801F0D5F9024802F0E5
:100C20000DFB08BDC84900208848002008B50D48C4
:100C300000F094FA0C490D4801F0A7FD4FF4E131A2
:100C40000B4801F03FFF4FF416510A4801F03AFFFC
:100C5000094801F0D7F9094801F0DCF902F0B2FACD
:100C6000002008BD904900200024F400F84900202D
:100C7000144A0020384A00203C4900204049002006
:100C800030B583B0184800F06FF802F09FFA0546BF
:100C90000DF10601154801F041F8044668B92E200F
:100CA00000F054F84FF47A7002F094FA02F08EFAE1
:100CB000401B0F4B9842EBD90CE0BDF806300B4DB2
:100CC0006B820021284600F0E4FF41F2883128467B
:100CD00000F0E9FF24B9074800F09CF803B030BDEC
:100CE000054800F097F8F9E7C4632000B8450020F4
:100CF0001FBF0200EC632000E863200008B50C4829
:100D000000F088F841F2883002F064FAFFF7EEFB59
:100D1000FFF72EFCFFF7B4FF064802F087FAFFF753
:100D2000A9FCFFF773FD044802F054FAF7E700BF8F
:100D3000486620008048002040771B0008B54FF629
:100D4000FF710120FFF716FA08BD000000B583B05F
:100D500002A901F8010D0122024801F040FF03B091
:100D60005DF804FB144A002048B110B5044605F0B4
:100D7000C9F902462146024801F031FF10BD704713
:100D8000144A002038B5044606E057300BE05730CF
:100D9000FFF7DCFF013429464D1E69B120780011B0
:100DA0000928F2DC3030FFF7D1FF207800F00F0087
:100DB0000928ECDC3030EBE738BD000030B58BB0F3
:100DC00005460C46012906DD0A2C06D00AA8002398
:100DD00000F8043D0CE00224F6E7002DF6DA0C489A
:100DE000FFF7C2FF6D42F1E75733DBB203705AB130
:100DF00095FBF4F204FB1253DBB215460138092BC4
:100E0000F2DC3033DBB2F1E7FFF7AEFF0BB030BD01
:100E10007466200008B508B1FFF7A6FF0148FFF788
:100E2000A3FF08BD7866200008B5FFF7ABFF0020E0
:100E3000FFF7F0FF08BD08B5FFF7C0FF0020FFF780
:100E4000E9FF08BD0B460146184605F0B1B810B5DC
:100E50000446043002F0CFF9204601F0D1FF2046CD
:100E600010BD10B50446143002F0C5F904F11000AD
:100E700002F0C1F904F10C0002F0BDF9204610BDEA
:100E800010B504460C3002F0B6F9204610BD38B556
:100E900004460D4600F060FF6560204638BD000046
:100EA000012800D070474FF6FF739942FAD12DE91F
:100EB000F04F83B0644C6549204600F0FEFF644962
:100EC000644800F0FAFF6449644800F0F6FF6449A2
:100ED000644800F0F2FF6449644800F0EEFF6449A2
:100EE000644800F0EAFF6449644800F0E6FF6449A2
:100EF000644800F0E2FFDFF844A26349504600F086
:100F0000DCFFDFF83CB26149584600F0D6FF604F85
:100F10006049384600F0D1FFDFF828825E4940463C
:100F200000F0CBFF5D495E4801F05EF85D495E4828
:100F300001F05AF85D4D5E49284601F055F85D4EC6
:100F40005D49304600F0BDFF5C495D48FFF79FFFFB
:100F50005C495D4801F048F85C495D4801F044F89F
:100F60005C495D4801F040F85C495D4801F03CF89F
:100F70005C495D4800F0C0FF30215C4801F0F6FBA1
:100F800031215B4801F084FB00215A4801F05AFEF0
:100F9000DFF8B491584B2F4A2146484601F058F8E3
:100FA000564C224656494846FFF74CFFDFF89C91C5
:100FB000544B5A465146484601F068FDDFF890A16F
:100FC000224651464846FFF73DFFDFF888914E4BD9
:100FD00042463946484601F059FD224651464846A8
:100FE000FFF730FF494F4A4B0093204B1D4A1B49E6
:100FF000384601F0BFFB474801F0AEFB464801F020
:10100000C8FA464800F0A4FE454801F034FDDFF878
:101010004881404600F040FF224642494046FFF7E3
:1010200011FF01960095204B1D4A39463E4800F0BD
:10103000E5F83E493E4800F0D7FF3E493E4800F003
:10104000D3FF03B0BDE8F08FF84800207C66200095
:1010500090662000FC4800204467200018490020CA
:10106000586720001C490020B86620000049002075
:101070006C67200020490020806720002449002060
:10108000CC66200004490020E0662000F4662000C1
:1010900010490020086720001C672000F867200026
:1010A000F04800200C682000F4480020E4480020AC
:1010B000D0672000E8480020E46720002446002094
:1010C0009049002030672000BC4900209467200030
:1010D000C0490020A4662000C4490020A867200061
:1010E000C8490020BC67200098490020F049002032
:1010F000E44900205C4A0020CC450020004100204B
:10110000810E2000F44500200C460020F849002004
:10111000D4450020CC490020D04900202849002097
:10112000104A00204F0E200044490020346820005F
:101130003C49002020682000404900200849002048
:101140000C49002014490020AC490020144A00201A
:10115000630E2000384A0020A049002008B54168ED
:1011600000F0FEFD064800F02EFF064800F02BFFC1
:10117000054800F028FF054800F025FF08BD00BF26
:10118000BC490020C8490020C0490020C4490020B3
:1011900008B54FF6FF710120FFF782FE08BD08B5C4
:1011A000C36813F0010F09D041685A10895882684A
:1011B0008A58406800EB6300904708BD8268F8E7F2
:1011C00010B50446C06800F01DFFA06800F01AFFCB
:1011D000606800F017FF0121014800F03DFE10BDDE
:1011E0009049002010B50446C06800F013FFA068C5
:1011F00000F010FF606800F00DFF10BD30B585B045
:101200000446016042608360089BC360099B0361E0
:10121000174B02930023039304A911E903008DE8FF
:10122000030014496161A46104F11C059DE80300F9
:1012300085E803006362A362E36223636363A363DD
:10124000E363236484F8443084F8453084F84630FE
:1012500084F8473084F849302046FFF7C3FF04F193
:101260001401206900F080FE204605B030BD00BFAB
:10127000B11320005068200021B110B4012904D01E
:1012800010BC704742628362704742638363F7E732
:1012900021B110B4012904D010BC7047C2620363AD
:1012A0007047C2630364F7E708B5006900F065FEA4
:1012B00008BD38B50546144612F0010F04D0406A47
:1012C00010B103681B68984714F0020F04D0A86A95
:1012D00010B103681B68984714F0100F04D0286BF6
:1012E00010B103681B68984738BD38B505461446E9
:1012F00012F0010F04D0406B10B103681B689847CF
:1013000014F0020F04D0A86B10B103681B68984753
:1013100014F0100F04D0286C10B103681B689847B4
:1013200038BD30B585B0044615460B0A8DF80C3033
:101330008DF80D1000238DF80E30C06800F06AFEA5
:1013400094F8493001930322009202AB03A920686C
:1013500001F056FBE06800F055FE9DF80A302B7056
:1013600005B030BD10B582B0044600238DF80730BB
:101370008DF806300DF107020D21FFF7D2FF9DF821
:101380000730342B02D0002002B010BD0DF1060250
:101390000E212046FFF7C5FF9DF80630012B03D034
:1013A000032B03D00020EFE70120EDE70120EBE75E
:1013B00010B582B004460DF107020021FFF7B1FF1E
:1013C0000DF1060201212046FFF7ABFF0DF10502EA
:1013D00002212046FFF7A5FF01AA03212046FFF7BF
:1013E000A0FF94F844309DF807100B4205D194F803
:1013F00046209DF805301A4204D09DF8052020466D
:10140000FFF757FF94F845309DF806100B4205D1C1
:1014100094F847209DF804301A4204D09DF8042027
:101420002046FFF762FF02B010BD00B583B071B176
:10143000012909D000210DF10702FFF772FF9DF885
:10144000070003B05DF804FB40F20221F3E74FF41C
:101450008171F0E710B584B004460B0A43F08003B5
:101460008DF80C308DF80D108DF80E20C06800F04E
:10147000D1FD94F8493001930322009202AB03A9F5
:10148000206801F0BDFAE06800F0BCFD04B010BDBA
:1014900070B582B00546144601B301291BD0002661
:1014A0000DF1070231462846FFF73BFF9DF8072064
:1014B00022F0600252B222F01F0204F01F04224305
:1014C0008DF8072002F09F0231462846FFF7C2FF41
:1014D000002002B070BD4FF40576E1E74FF48A7644
:1014E000DEE708B541B1012903D00021FFF7B2FFC3
:1014F00008BD40F20321F9E740F20311F6E70000CE
:10150000F8B507460E461D46FFF7EBFF01E0AC427B
:101510000BD031463846FFF788FF0446A842F6D084
:101520006421024800F064FCF1E7F8BD9049002016
:1015300008B502231A46FFF7E3FF08BD08B50323E9
:101540001A46FFF7DDFF08BD38B505460C460423F3
:101550001A46FFF7D5FF2CB9E86A18B103681B6873
:10156000984738BD012C00D038BDE86B0028FBD06F
:1015700003681B689847F7E708B505231A46FFF785
:10158000BFFF08BD2DE9F04F8FB0064689461546CE
:101590001C46BDF860706C4B0FCB0DF1380E0EE998
:1015A0000F0006F14403069306F14603079306F184
:1015B0004503089306F147030993B9F1000F5BD186
:1015C00023682289974200DC3A460021019102916A
:1015D0000391049105910521ADF804100621ADF8A1
:1015E00008100421ADF80C100721ADF810100821E7
:1015F000ADF814105549A1FB0303D8088DF8060077
:10160000DB0A8DF80A30A388A1FB0313DB088DF8F1
:101610000E308DF81220120A8DF81620B9F1000F45
:1016200033D0B9F1010F2DD00027B9F1000F32D01E
:10163000B9F1010F2CD04FF00008082206213046E6
:10164000FFF708FF002207213046FFF703FF0024C1
:10165000032C23D80EAB03EB840A1AF80EBC5A46AF
:101660003AF8101C3046FFF7F5FE5AF8203C83F894
:1016700000B00134A4B2EBE72368A3F5B713A3F5D8
:1016800058739EE74FF40077CFE74FF48077CCE7AD
:101690004FF48068D1E74FF44078CEE70024AB8860
:1016A0009C420DDA2B6803EB840233F82410394492
:1016B000927889B23046FFF7CDFE0134A4B2EEE74E
:1016C0000024AB899C420DDAAB6803EB840233F84B
:1016D00024104144927889B23046FFF7BBFE0134B2
:1016E000A4B2EEE70024042C0ED80EAB03EB840367
:1016F00033F8341C394413F8322C89B23046FFF7E2
:10170000A9FE0134A4B2EEE7B9F1000F16D0B9F189
:10171000010F10D000210DF103023046FFF701FE4A
:101720009DF8033013F0080F0BD1042386F84830DE
:101730000FB0BDE8F08F40F20141ECE740F201311B
:10174000E9E70223F2E700BF546820001F85EB5150
:1017500070B584B0044615461E460B0A8DF80C3051
:101760008DF80D10C06800F055FC94F849300193D5
:101770000222009202AB03A9206801F041F994F81B
:101780004930019300962B4600221146206801F053
:1017900037F9E06800F036FC04B070BD2DE9F04781
:1017A00082B0044616461D460B46002958D0012932
:1017B00053D00021002B59D0012B54D00027002BEF
:1017C0005AD0012B55D04FF00009002B5AD0012BD5
:1017D00055D04FF00008002B5AD0012B55D04FF0B8
:1017E000000A022301AA2046FFF7B2FF9DF8043049
:1017F0009DF8052043EA022394F848209B1A9BB2E7
:101800002A88934247DC2B80324651462046FFF718
:101810009FFF0DF1030249462046FFF782FD9DF927
:1018200003200A9B1A700DF1030241462046FFF780
:1018300078FD9DF903200B9B1A700DF103023946C8
:101840002046FFF76EFD9DF80330C3F340130C9A5A
:101850001370002002B0BDE8F08740F20441A9E710
:101860004FF44171A6E740F20147A8E740F2013783
:10187000A5E740F20D29A8E740F20D19A5E74FF4BE
:101880000478A8E74FF48878A5E74FF4405AA8E712
:101890004FF4005AA5E74FF0FF30DBE770B584B096
:1018A000044615461E460B0A43F080038DF80C30A3
:1018B0008DF80D10C06800F0ADFB94F8493001932D
:1018C0000222009202AB03A9206801F099F894F873
:1018D000493001930023009332462946206801F0E5
:1018E0008FF8E06800F08EFB04B070BDF0B583B0F7
:1018F000054616460A4609B301291CD000211AB331
:10190000012A1ED0002795F848401C44A4B28DF847
:101910000440C4F302238DF80530022301AA2846AF
:10192000FFF7BCFF2346324639462846FFF7B6FF8D
:10193000002003B0F0BD40F20641E0E740F206317E
:10194000DDE74FF46057DEE74FF42057DBE7002375
:1019500043608360704710B504460160FFF7F7FFEE
:10196000204610BD10B5044601F0E2FA28B1034646
:101970002278282A02D0002300E00023184610BD58
:1019800070B504460E4600680021043001F03AFCB0
:10199000206801F03DFAB8B1214651F8040B01F07E
:1019A00030FBBE21206801F00FFB09223146206880
:1019B00001F0FAFB206801F02BFA0546206804309C
:1019C00001F034FC284670BD05462068043001F063
:1019D0002DFCF7E710B584B00C4601A9FFF7D0FF46
:1019E000014668B164B19DF805209DF8043043EAD2
:1019F00002221301C3EB8223A3EBC2031B1123605A
:101A0000084604B010BD10B584B00C4601A9FFF71C
:101A1000B7FF024638B134B19DF807109DF8063083
:101A200043EA01232380104604B010BD38B50446B4
:101A300000680021043001F0E5FB206801F0E8F9BE
:101A4000B8B1214651F8040B01F0DBFAB42120684B
:101A500001F0BAFA206801F0E1FA80F00100C5B2A5
:101A6000206801F0D5F92068043001F0DFFB28463A
:101A700038BD05462068043001F0D8FBF7E770B5A3
:101A800005460C460846FFF76DFF064608B9304686
:101A900070BD226863686A60AB602846FFF7C6FFC6
:101AA0002873F4E770B504460E4600680021043040
:101AB00001F0A8FB206801F0ABF9B8B1214651F85C
:101AC000040B01F09EFA4E21206801F07DFA0322FA
:101AD000B11C206801F088FA206801F099F90546E8
:101AE0002068043001F0A2FB284670BD054620683E
:101AF000043001F09BFBF7E738B50446006800218D
:101B0000043001F07FFB206801F082F9054698B1AE
:101B1000214651F8040B01F074FA4821206801F0C5
:101B200053FA237B6BB10A2001F054FB2068043088
:101B300001F07CFB284638BD2068043001F076FBBC
:101B4000F8E7206801F0B0F9EDE730B585B005465B
:101B50000C4601A9FFF714FF034610B9184605B05B
:101B600030BD8DF80640240A8DF8074001A92846AB
:101B7000FFF798FF03460028F0D02846FFF7BCFF88
:101B80000346EBE738B579B9044601F01FFB05467B
:101B900001F01CFB401BB0F57A7F09D2204601F012
:101BA0003DFA0028F4D038BD40F2EE2001F012FBDF
:101BB00038BD38B5044600680021043001F022FB2E
:101BC000206801F025F90546A0B1214651F8040B23
:101BD00001F017FA4421206801F0F6F9237B73B174
:101BE000217B2068FFF7CEFF2068043001F01EFB48
:101BF000284638BD2068043001F018FBF8E720685B
:101C000001F052F9ECE70160704710B582B004466C
:101C10000DF10701206800F0B7FF0028F8D102B0ED
:101C200010BD0530002307214A1ED2B229B1017828
:101C30000B44DBB211460130F6E75842C0B27047A0
:101C40002DE9F0410446884617461D46061DFFF75C
:101C5000DCFFFF2323710123637184F80680E771A1
:101C60002B0E2372C5F307436372C5F30723A372D8
:101C7000E57204F10D052046FFF7D3FF2073AA1B80
:101C80003146206800F0ABFFB0FA80F04009BDE8B3
:101C9000F08108B529B9002200237921FFF7D0FF90
:101CA00008BDA022F8E708B50B4600229921FFF7EE
:101CB000C7FF08BD2DE9F04182B0064601F086FA63
:101CC0000746351D002412E03046FFF7AAFF337B9C
:101CD00098421FD04FF000081CE0012001F07AFA72
:101CE00001F074FAC01B47F22F53984210D80DF13F
:101CF0000701306800F048FF80460028EDD06A1CDC
:101D00009DF807302B700134092CDDD01546E4E72F
:101D10004FF00008404602B0BDE8F08138B50446F7
:101D20000D4600231A468621FFF78AFF034608B9AD
:101D3000184638BD2046FFF7BDFF03460028F7D000
:101D4000002DF5D0A179E27942EA01222A80EFE75D
:101D50000022027070477047002202707047000036
:101D600038B50C46184D00224021284602F084FD6B
:101D700000228021284602F07FFD012240212846D2
:101D800003F08EFA01228021284603F089FA626866
:101D90006178207803F070FDA06803F023FD63787C
:101DA00023B90A4B1B6813F4002FFAD023784BB1E8
:101DB000064B1B6813F0806FFAD1044B1B6813F0BD
:101DC000806FFAD038BD00BF00C00D4004200D4028
:101DD00008B503F099FD08BD08B503F0E3FA08BDA6
:101DE00010B50C46FFF7F8FF201AC00F10BD000019
:101DF00070B505460E461F2900D801262846FFF774
:101E0000EBFF074CA4FB0634361B04EB560400EB37
:101E1000141421462846FFF7E3FF0028F9D070BDCF
:101E20008510420870B50E4603F00CFE0546033ED1
:101E300003F0A8FC074BA3FB0024A40904FB06F451
:101E4000A3FB0434A40903F0FDFD281A8442FAD848
:101E500070BD00BFD34D621008B54FF47A7303FB19
:101E600001F1FFF7C5FF08BD094BB3F1281F04D3EB
:101E70001A780A70013B0131F7E7064B044A934296
:101E800004D91A780A70013B0131F7E7704700BFA7
:101E90002B0028002F00280010B5044600F0A6FFF4
:101EA0000021201D01F0E2F900232372204610BD1D
:101EB00008B5043001F0C2F908BD01607047006840
:101EC000704710B50446FFF7F8FF002363602368EE
:101ED0001979186802F0C0FD2368DA681979186862
:101EE00002F0FAFC23689A680AB9204610BD1979F5
:101EF000186803F0D5F9F8E710B50446FFF7E1FFDD
:101F000023681979186802F0A7FD2368DA6819793F
:101F1000186802F03FFE23681B680F4A934209D0FD
:101F20000E4A93420BD00E4A93420CD00D4A934274
:101F30000DD0FEE7012002F0C7FE204610BD0220B2
:101F400002F0C2FEF9E7042002F0BEFEF5E7082029
:101F500002F0BAFEF1E700BF00900D4000A00D4076
:101F600000B00D4000C00D4010B50446416000F0C7
:101F7000F5F8204600F0F6F810BD10B504460368E9
:101F80001979186802F018FD23681979186802F0A9
:101F9000E9FC10BD406820B108B503681B6898478C
:101FA00008BD704708B503681A69012A05D0197978
:101FB0000A46186802F03EFD08BD0022197918682B
:101FC00002F038FD08BD08B503681A69012A05D07A
:101FD00000221979186802F02DFD08BD19790A460A
:101FE000186802F027FD08BD10B50446FFF765FF2D
:101FF00023681979186802F049FD2046FFF7E3FFCE
:10200000204610BD08B5036819790A46186802F021
:1020100011FD08BD08B5036800221979186802F09F
:1020200009FD08BD012800D070474FF6FF739942A3
:10203000FAD1044B1A68044BB3FBF2F3034A136062
:10204000F2E700BFE86F2000A0860100604A002090
:1020500010B5044601604260836001210C3001F03C
:1020600005F9204610BD704708B54FF6FF710120F5
:10207000FFF7D8FF08BD000008B5034B186808B18A
:1020800000F0BEFD08BD00BF004B002008B5034BAB
:10209000186808B100F0B4FD08BD00BF044B002073
:1020A00008B5034B186808B1FFF7DDFF08BD00BF96
:1020B000704A002008B5034B186808B100F0BFFC57
:1020C00008BD00BF744A002008B5044B1B681BB153
:1020D000034B186800F0B3FC08BD00BF744A002031
:1020E000784A002008B5034B186808B100F058FA88
:1020F00008BD00BFFC4A002008B5034B186808B1B2
:1021000000F0B4FA08BD00BFFC4A002008B5034B3C
:10211000186808B100F0C2FA08BD00BF284B0020C3
:1021200008B5034B186808B1FFF715FE08BD00BFDE
:10213000684A002008B5034B186808B100F0FBFDA1
:1021400008BD00BF644A002008B5034B186808B1F9
:10215000FFF7AEFE08BD00BF6C4A00200048704784
:102160002C4B002070B50646FFF7A9FE05683046E7
:10217000FFF7A5FE0479012C0FD0022C1BD0042CF4
:102180001BD0082C1BD0102C1BD0202C1BD0402C7B
:102190001BD0802C02D1072400E000241C4B9D4260
:1021A00015D01C4B9D421AD01B4B9D421FD01B4B80
:1021B0009D4224D070BD0124F0E70224EEE7032401
:1021C000ECE70424EAE70524E8E70624E6E7F02143
:1021D000102002F021FE124B43F8246070BDF02164
:1021E000112002F019FE0F4B43F8246070BDF0215E
:1021F000122002F011FE0C4B43F8246070BDF02158
:10220000132002F009FE094B43F82460D2E700BF17
:1022100000900D4000A00D4000B00D4000C00D40EA
:102220007C4A00209C4A0020BC4A0020DC4A002056
:102230002DE9F04180464F4F4FF6FF71384603F0CD
:1022400057FD4D4E4FF6FF71304603F051FD4B499F
:102250004B4802F0C3FB4B494B4802F0BFFB4B49D4
:102260004B4802F0BBFB4B494B4802F0B7FB4B4DD0
:102270004B4C2A46FF21204602F056FD2A464FF4D9
:102280007F41204602F050FD2A464FF6FF7120465E
:1022900002F04AFD434D04F580542A46FF212046B2
:1022A00002F042FD2A464FF47F41204602F03CFDF9
:1022B0002A464FF6FF71204602F036FD3A4D04F5EE
:1022C00080542A46FF21204602F02EFD2A464FF474
:1022D0007F41204602F028FD2A464FF6FF71204636
:1022E00002F022FD314D04F580542A46FF2120469C
:1022F00002F01AFD2A464FF47F41204602F014FDF9
:102300002A464FF6FF71204602F00EFD2849384656
:1023100003F0D0FC2749304603F0CCFC264802F0FD
:1023200071FD2649264803F0FBF82649264803F0AC
:10233000F7F826492A2002F00BFE25492B2002F04F
:1023400007FE2449312002F003FE23492E2002F02B
:10235000FFFD22491E2002F0FBFD214C21463E20BC
:1023600003F006FE21463F2003F002FE4046BDE892
:10237000F08100BF00C0004000D00040A124200038
:1023800000900D40B524200000A00D40C92420007D
:1023900000B00D40DD24200000C00D403525200098
:1023A00000000340492520005D2520007125200004
:1023B000792020008D202000A1202000B5202000C1
:1023C00000800040C920200000900040E52020004F
:1023D000F92020000D21200021212000352120009E
:1023E00049212000012800D0704708B54FF6FF733F
:1023F000994200D008BD0248FFF71AFFFAE700BF74
:102400002C4B0020F8B505460F46012102F0BEFA1C
:1024100006460121284602F0FBFB0446F1B228469D
:1024200002F0CAFAE1B2284602F022FC344314F06A
:10243000010F03D0386808B1FFF7ACFD14F0020FAC
:1024400003D0786808B1FFF7A5FD14F0040F03D09E
:10245000B86808B1FFF79EFD14F0080F03D0F868C4
:1024600008B1FFF797FD14F0100F03D0386908B1D9
:10247000FFF790FD14F0200F03D0786908B1FFF743
:1024800089FD14F0400F03D0B86908B1FFF782FD51
:1024900014F0800F03D0F86908B1FFF77BFDF8BD99
:1024A00008B502490248FFF7ADFF08BD7C4A00208D
:1024B00000900D4008B502490248FFF7A3FF08BD90
:1024C0009C4A002000A00D4008B502490248FFF7D1
:1024D00099FF08BDBC4A002000B00D4008B5024974
:1024E0000248FFF78FFF08BDDC4A002000C00D4006
:1024F00038B50E4D0121284602F060FC0446014625
:10250000284602F06FFC0A4B186810B114F0170F40
:1025100006D1074B586810B114F4706F03D138BD61
:1025200000F0ACFAF5E700F0A9FAF8E70000034084
:10253000084B002008B502490248FFF7D9FF08BD43
:10254000084B00200000034008B502490248FFF78D
:10255000CFFF08BD104B00200010034008B5024912
:102560000248FFF7C5FF08BD184B002000200340BC
:1025700008B502490248FFF7BBFF08BD204B002009
:102580000030034008B54FF6FF710120FFF72AFF26
:1025900008BD0022027042608260C2600261704722
:1025A0002DE9F04104462F4F3D682F4ED6F80080AC
:1025B0002A2002F093FC00233B60336015F0020FE9
:1025C0000AD02378DBB2022B1BD00023F3B9227888
:1025D000D2B2052A21D02BBB15F0400F05D02378AD
:1025E000DBB2032B25D0002343BB18F0020F06D02B
:1025F0002378DBB2062B28D00023002B2AD1BDE89C
:10260000F0816368002BE1D00123DFE7032323700F
:10261000606803681B689847DEE7E268002ADAD042
:102620000123D8E706232370E06803681B689847F6
:10263000D2E7A368002BD7D00123D5E7042323706A
:10264000A06803681B689847CFE72369002BD4D0A4
:102650000123D2E707232370206903681B6898478A
:10266000CDE700BF348808403088084038B5074DB2
:102670002C682B2002F032FC2B681C4014F0020F57
:1026800002D06FF002022A6038BD00BF9486084075
:10269000016000224260826070470000F8B5074682
:1026A000124B1C68124D2E68312002F017FC0023DB
:1026B0002B6004EA060313F0100F09D02B6823F0F7
:1026C00010032B60B86880B103681B689847F8BD99
:1026D00013F0080F09D0064A136823F008031360AB
:1026E000786810B103681B689847F8BD08880840EF
:1026F0000C88084008B503681B68984708BD08B5F2
:1027000003685B68984708BD00B583B069460B480D
:10271000FFF7AAFB9DF804009DF805301B0443EA6F
:1027200000639DF8060043EA00239DF80700184364
:1027300003F07CFC03B05DF804FB00BF904900206F
:1027400008B503F09BFC80B208BD0000014B03609C
:10275000704700BFF46F200010B50446FFF7F6FF86
:10276000014B2360204610BD047020000160002250
:102770004260704710B4016042608360019BC36097
:1027800000230361436110BC70472DE9F04182B022
:10279000044688460068FFF792FB07466068FFF72B
:1027A0008EFB0646A068FFF78AFB0546B8F1000FCE
:1027B00002D0E368C3F81C80E368186803F0E8F807
:1027C000E368186803F002F9E368186803F01CF97D
:1027D000E368586802F08CFEE3689968586802F074
:1027E0007FFFBA683979386802F040FCB268317905
:1027F000306802F0DDFBAA682979286802F0D8FB6E
:102800003979386802F05CF93179306802F058F9AA
:102810002979286802F054F9E3689B6813B1012B09
:1028200015D0FEE702F0AEFFE1684D684A690B691A
:10283000CE698969019100960146284602F0C6FDDD
:10284000E368586802F03CFE02B0BDE8F08102F097
:10285000DFFFE1684D684A690B69CE6989690191BA
:1028600000960146284602F0B1FDE9E72DE9F04760
:1028700082B004468A4699460A9E904622B136B1F5
:10288000B24206D9174600E03746002508E0174651
:10289000FBE73746F9E7FF2109E000221A7001350E
:1028A000AF421AD9B8F1000FF5D01AF80510E36855
:1028B000586802F087FEE368586802F0F9FE0028C5
:1028C000F9D1E36801A9586802F0A4FE09EB0503F9
:1028D000002EE2D09DF80420E0E7012002B0BDE820
:1028E000F08700002DE9F04784B0FF248DF80F40F9
:1028F0008DF80E4099427ED0C46865683F4CA54271
:1029000009D004F58054A54201D0002046E01824E7
:102910004FF0190802E00A244FF00B0899461646BA
:102920008A460746002A3CD00221284602F08EFE45
:102930004FF04041404603F045FAFB685B68009663
:10294000083352460121404603F064FA0C9B002BE9
:102950003CD0FB680121586802F078FE4FF04061DE
:10296000204603F02FFAFB685A680C9B00934B46F5
:1029700008320121204603F04DFA204603F00AFAFE
:10298000404603F007FA204603F0CAFA0028FAD1BD
:10299000FB680321586802F071FE012004B0BDE815
:1029A000F0870221284602F051FE4FF04C4140468C
:1029B00003F008FAFB685B680C9A009208330DF18B
:1029C0000F020121404603F025FABFE7FB68012111
:1029D000586802F03BFE4FF04C41204603F0F2F9FC
:1029E000FB685A6800960DF10E030832012120465B
:1029F00003F010FAC1E70020D0E700BF00800040DC
:102A000030B583B0069C9DF81C5025B90094FFF7A3
:102A10002DFF03B030BD0094FFF764FFF9E7406974
:102A200020B108B503681B68984708BD7047006966
:102A300020B108B503681B68984708BD704738B5D2
:102A40000546C3680121586802F08CFD0446EB6816
:102A50000146D86802F0A0FD14F0080F03D114F06D
:102A6000040F04D138BD2846FFF7E1FFF7E72846F9
:102A7000FFF7D5FFF6E7002202807047406820B1DB
:102A800008B503681B68984708BD704710B5044631
:102A900001604260836000210C3000F0E7FB002100
:102AA00004F1100000F0E2FB002104F1140000F03A
:102AB000DDFB0023A361E36184F8203084F821303A
:102AC000204610BDF8B504460F460068FFF7F7F939
:102AD00006466068FFF7F3F905460FB1A3681F616A
:102AE000A368186802F054FFA368186802F06EFF2C
:102AF000A368186802F088FFA368586802F0F6FF20
:102B0000A3689968586803F02BF9B2683179306886
:102B100002F0ACFAAA682979286802F049FA3179FA
:102B2000306801F0E7FF2979286802F00BF8A36804
:102B30009B6813B1012B1DD0FEE702F023FEA568B0
:102B40006B692A690146686802F0ECFFA3682022DD
:102B50000021586802F08CFFA368586803F016F84B
:102B6000A3681021586803F023F8A368586802F09E
:102B7000A5FFF8BD02F04CFEA5686B692A69014605
:102B8000686802F0CFFFE1E770B504460E4683683F
:102B9000586803F02BF8054608B9284670BDA368AD
:102BA000586803F037F8002801DB3070F5E700259E
:102BB000F3E7F8B506460D4617460024BC4207D297
:102BC000B368586803F03CF8287001340135F5E724
:102BD000B368586803F05CF80028F9D1F8BDF8B57F
:102BE000074616460024B44208D2BB684D1C09783B
:102BF000586803F039F801342946F4E70020F8BD9D
:102C000038B5054683680121586803F085F8044605
:102C1000AB680146586803F093F814F0200F0CD10C
:102C200014F0500F08D0C4F3801485F82040A86930
:102C300010B103681B68984738BD05F1140000F017
:102C4000FDFAEDE70160704700BFFDE700BFFDE75B
:102C500008B5FF21074801F0FFFEFF21064801F0FB
:102C6000FBFEFF21054801F0F7FEFF21044801F0BB
:102C7000F3FE08BD00900D4000A00D4000B00D40D7
:102C800000C00D4008B502F045FEFCE700B583B07A
:102C9000FF221B4B1A601B4A1B4B1A601B4B0193F4
:102CA0001B4B1A681B4B9A4204D1019B5A1E01927E
:102CB000002BF5D10022144B1A60174A136843F019
:102CC00001031360154B164A03E0116819600433C1
:102CD000043214498B42F8D3134B05E01A46002105
:102CE00042F8041B1B681346104A9342F6D3FFF7C1
:102CF000AFFF03F06BF9FDF799FFFFF7C3FF00BFCC
:102D0000B4200D40BBAABBAA0430002080841E0062
:102D1000003000204812F0A598200D40004000200F
:102D2000FC7320000848002008480020605C002058
:102D300008B5FFF7ABFF406820B108B503681B6812
:102D4000984708BD7047016070470000F0B583B038
:102D500006460D461746022221490068FFF73FFF4D
:102D60002C460CE09DF80730202B16D103E00D2BEC
:102D700020D0AC4223D1631B7A1E93422CD2012275
:102D80000DF107013068FFF714FF01220DF1070173
:102D90003068FFF724FFAC42E4D09DF807300D2BDC
:102DA000E5D00A2BE3D07F2B0DD0082B0BD023705E
:102DB0000134E0E701220B493068FFF710FF0023E0
:102DC0002370012009E0AC42D5D9013C0322064919
:102DD0003068FFF704FFCEE7002003B0F0BD00BF6E
:102DE0000C702000107020001470200010B50446F4
:102DF000012000F039FC206008B1204610BDFEE73C
:102E000010B50446006800F057FD204610BD0000D4
:102E100070B5054603681979186801F01DFE7D2418
:102E2000631E13F0FF043BD002211E48FEF7FAFF99
:102E30002B681979186801F0EBFD0028F0D001F03B
:102E4000E9FA2B681979186801F020FE2B68002236
:102E50001979186801F0EEFD01F0FEFA114E4FF4F9
:102E6000F0713046FEF7DEFF01F0D4FA2B681979D5
:102E7000186801F0F1FD46213046FEF7D3FF2B68BC
:102E80001979186801F0C4FDB0FA80F4640901F002
:102E9000E3FA4FF4CD713046FEF7C4FF204670BD13
:102EA0000024FBE79049002010B5044601F0B2FA77
:102EB00023681979186801F0CFFD23680022197979
:102EC000186801F0B7FD01F0C7FA10BD00230372C6
:102ED0004372C0F80A30C0F80E30704710B504468F
:102EE000FEF7EBFF0121201D00F0C0F923681979DE
:102EF000186801F0B1FD2046FFF7E8FF204610BD3D
:102F000030B400234A1ED4B261B10278534003F0BA
:102F10000F0206498D5C1A0910328B5C6B4021460A
:102F20000130EFE7184630BC704700BF1870200032
:102F300010B5C4790721FFF7E3FF844214BF0020D6
:102F4000012010BD38B50446E9B901F063FA2368E1
:102F50001979186801F09AFD236800221979186818
:102F600001F068FD41211748FEF75CFF23681979DD
:102F70000A46186801F05EFD01F06EFA0121114861
:102F8000FEF750FF38BD01F045FA2368197918683B
:102F900001F07CFD236800221979186801F04AFDD0
:102FA000084D0A212846FEF73DFF236819790A4695
:102FB000186801F03FFD01F04FFA41212846FEF765
:102FC00031FFDBE79049002070B506460D4601242D
:102FD0004CB12C4214BF012100213046FFF7B2FF53
:102FE0006400E4B2F4E770BD70B50646541E3AB111
:102FF0004D1C09783046FFF7E7FF22462946F5E7E2
:1030000070BD38B504460D465521FFF7DDFF082297
:1030100029462046FFF7E8FF38BD000038B50446D2
:1030200001F0F8F923681979186801F02FFD236879
:1030300000221979186801F0FDFC0F4D0321284684
:10304000FEF7F0FE23681979186801F005FD0A21E2
:103050002846FEF7E7FE23681979186801F0D8FCC6
:10306000044601F0F9F934212846FEF7DBFE201C66
:1030700018BF012038BD00BF904900202DE9F04F56
:1030800083B004468B4690F809A0BAF1000F12D025
:103090004FF00009B9F1000F6BD0A37A002B68D074
:1030A000BBF1000F6BD054F80A2F6368CBF80020F7
:1030B000CBF8043063E0FFF7ABFE814618B900237C
:1030C000237263725BE0F0212046FFF77DFF01254C
:1030D0004FF000082F46CDF804801AE086422CD02D
:1030E000002E3DD004EB0802937A2B4393723146B5
:1030F0002046FFF727FF0137FFB26D0015F0FF05EF
:1031000004D108F101085FFA88F80125B8F1070F2A
:103110000ADC2046FFF782FF06462046FFF77EFFC7
:10312000002EDBD00028D9D0402F20DD019A22725A
:10313000002AAFD101236372ACE7267AB7420ADADC
:1031400004EB08039B7A1D4214BF01260026002EC3
:10315000C6D10197C4E7B74214BF00260126F6E79F
:1031600004EB0802937A23EA05039372BFE7D14682
:1031700090E74FF0000984F8089084F809904846D9
:1031800003B0BDE8F08F70B506460025012401E0CC
:103190006400E4B234B13046FFF740FF0028F7D0B6
:1031A0002543F5E7284670BDF8B507460C46551E81
:1031B0003AB1661C3846FFF7E6FF20702A463446CF
:1031C000F5E7F8BD08B500F031FD08BD08B500F021
:1031D00073FD08BD08B54FF47A7303FB00F0034B91
:1031E000A3FB0030800900F077FE08BDD34D6210CC
:1031F00000220260704710B50446006800F05CFBD6
:10320000204610BD08B549B94FF0FF31006800F005
:1032100095FA012814BF0020012008BD006800F0C5
:103220008DFA012814BF0020012008BD08B5002335
:103230001A461946006800F053F908BD00B583B07E
:1032400002A9002341F8043D006800F018FA019B30
:103250003BB14FF08052044B1A60BFF34F8FBFF366
:103260006F8F03B05DF804FB04ED00E038B5044651
:103270000D46FFF7BDFF03220021012000F00CF9ED
:10328000206010B115B9204638BDFEE72046FFF793
:10329000CDFFF8E720B108B5C3680069984708BDBD
:1032A0007047000010B582B0044641608360049806
:1032B000E06005982061019400932346024800F0E5
:1032C00083FC204602B010BD95322000436A23B132
:1032D000036B1868C0F1050070470020704710B5F7
:1032E000044601F097F8A26BE36B9A4204D00024E5
:1032F00001F0B2F8204610BD0124F9E710B50446EC
:1033000001F088F8A36B23B1002401F0A5F8204652
:1033100010BD0124F9E770B504461646856B026CB2
:103320004AB9036853BB806800F056FF0023A360CE
:103330000135A56370BD6EB9406802F06BFE226C6A
:10334000636813446360A268934219D3236863607F
:103350000020EDE7C06802F05DFE236C5B42E2688E
:103360001A44E26021688A4202D2A2681344E360F0
:10337000022E07D145B1013D0020D9E70020D7E753
:103380000020D5E70020D3E70020D1E738B5054677
:1033900001F040F895F8454064B201E0013C64B2A8
:1033A000002C0ADD6B6A43B105F1240000F020FE19
:1033B0000028F3D000F0AEFEF0E7FF2385F845309B
:1033C00001F04AF801F026F895F8444064B201E0B3
:1033D000013C64B2002C0ADD2B6943B105F11000F9
:1033E00000F006FE0028F3D000F094FEF0E7FF2383
:1033F00085F8443001F030F838BD000038B530B3FE
:1034000004460D4601F006F82168E26B236C03FBCD
:103410000210A0600020A0636160013A02FB031368
:10342000E360FF2384F8443084F84530C5B923694C
:10343000F3B104F1100000F0DBFDC8B14FF0805291
:103440000D4B1A60BFF34F8FBFF36F8F10E04FF03B
:10345000A00383F31188BFF36F8FBFF34F8FFEE795
:1034600004F1100001F078F904F1240001F074F97E
:1034700000F0F2FF012038BD04ED00E010B5029B22
:103480000C4639B11A60D8631C6401211846FFF755
:10349000B5FF10BD1B60F6E740B94FF0A00383F302
:1034A0001188BFF36F8FBFF34F8FFEE7F0B583B086
:1034B000054611B101FB00F000E0002017460C4664
:1034C000483001F0D7F8064638B100903B4600F18D
:1034D000480221462846FFF7D1FF304603B0F0BD31
:1034E000F0B585B0019260B1044699B10122BAB934
:1034F0004FF0A00383F31188BFF36F8FBFF34F8F9B
:10350000FEE74FF0A00383F31188BFF36F8FBFF383
:103510004F8FFEE7026C0AB90122E8E70022E6E7D6
:10352000022B09D06AB94FF0A00383F31188BFF3CF
:103530006F8FBFF34F8FFEE7E06B0128F2D00022C0
:10354000F0E71D460E46002739E02A463146204660
:10355000FFF7E1FE636A8BB104F1240000F048FD3F
:1035600038B14FF08052394B1A60BFF34F8FBFF321
:103570006F8F00F071FF012005B0F0BD0028F8D07A
:103580004FF08052314B1A60BFF34F8FBFF36F8FF4
:10359000EFE700F061FF0020EEE702A800F06EFD0B
:1035A000012719E0002384F8443021E0002384F847
:1035B000453023E02046FFF7E9FE00F00FFC00F065
:1035C00029FFA26BE36B9A42BFD3022DBDD0019BB2
:1035D000002BDED0002FE0D000F03EFF00F064FBB7
:1035E00000F018FF94F844305BB2B3F1FF3FD9D03C
:1035F00094F845305BB2B3F1FF3FD7D000F02CFF19
:1036000001A902A800F046FDC8B92046FFF767FEF1
:103610000028CFD0019904F1100000F0D1FC204621
:10362000FFF7B4FE00F0DAFB0028C8D14FF080525B
:10363000064B1A60BFF34F8FBFF36F8FBFE7204673
:10364000FFF7A4FE00F0CAFB002095E704ED00E0C0
:1036500048B108B5002181600160C1600B460A468F
:10366000FFF73EFF08BD704710B50246002101205C
:10367000FFF712FF0446FFF7EBFF204610BD60B1D5
:1036800070B50446036C8BB14FF0A00383F311882F
:10369000BFF36F8FBFF34F8FFEE74FF0A00383F3AD
:1036A0001188BFF36F8FBFF34F8FFEE7036853B1ED
:1036B000012373B94FF0A00383F31188BFF36F8F19
:1036C000BFF34F8FFEE783680BB90123F1E70023B7
:1036D000EFE70E4600F08AFFEFF311854FF0A003ED
:1036E00083F31188BFF36F8FBFF34F8FA26BE36B30
:1036F0009A421AD294F845305BB20132A263B3F118
:10370000FF3F0CD1636A93B104F1240000F070FC18
:1037100078B186B10120306085F3118870BD013326
:103720005BB284F845300120F6E70020F4E7012081
:10373000F2E70120F0E70120EEE7000070B584B069
:10374000019158B10446036C8BB14FF0A00383F391
:103750001188BFF36F8FBFF34F8FFEE74FF0A003C9
:1037600083F31188BFF36F8FBFF34F8FFEE7002500
:103770002E464EE0013BA363236813B900F0E6FD3B
:10378000A060236963B104F1100000F031FC38B18E
:103790004FF08052474B1A60BFF34F8FBFF36F8FCC
:1037A00000F05AFE0125284604B070BD45B14FF027
:1037B000A00383F31188BFF36F8FBFF34F8FFEE732
:1037C00000F04AFEEFE702A800F058FC01262AE0CC
:1037D000002384F8443032E0002384F8453034E09C
:1037E00000F018FEA06800F09BFC054600F034FED7
:1037F0003BE02046FFF7CAFD00F0F0FA09E0204662
:10380000FFF7C4FD00F0EAFA2046FFF777FD002835
:1038100040D100F0FFFDA36B002BABD1019B002B2F
:10382000C4D0002ECFD000F017FE00F03DFA00F01B
:10383000F1FD94F844305BB2B3F1FF3FC8D094F887
:1038400045305BB2B3F1FF3FC6D000F005FE01A9E1
:1038500002A800F01FFC0028D1D12046FFF74EFD42
:103860000028C6D02368002BBAD0019904F12400A7
:1038700000F0A6FB2046FFF789FD00F0AFFA002814
:10388000C7D14FF080520B4B1A60BFF34F8FBFF37D
:103890006F8FBEE7002D86D000F0BCFD2046FFF7FD
:1038A00015FD0146A06800F0F1FC00F0D5FD0025F3
:1038B00079E700BF04ED00E008B540B94FF0A00380
:1038C00083F31188BFF36F8FBFF34F8FFEE700F0D4
:1038D00023FF08BD084B1B681B683BB1064B1B68E8
:1038E000DB68DB685A68054B1A6070474FF0FF329F
:1038F000024B1A60704700BF344B0020E44B00209D
:1039000010B50446006B00F007FF204600F004FFEE
:1039100010BD2DE9F047089EDDF824800A9CA1B176
:103920000D46216B02F18042013A01EB820222F046
:10393000070700220B2A11D815F802E0A11881F818
:1039400034E0A95C51B10132F4E74FF0A00383F3F6
:103950001188BFF36F8FBFF34F8FFEE7002284F80B
:103960003F20042E00D9042699468246E66226644A
:1039700000256564201D00F0FAFE04F1180000F037
:10398000F6FE2461C6F10506A6616462A56484F8AA
:103990004C504A465146384600F016FD2060B8F1BA
:1039A000000F01D0C8F80040BDE8F08738B500240A
:1039B00007E004EB840293000E48184400F0CCFEAC
:1039C0000134042CF5D90C4D284600F0C5FE0B4CF3
:1039D000204600F0C1FE0A4800F0BEFE094800F093
:1039E000BBFE094800F0B8FE084B1D60084B1C6088
:1039F00038BD00BF3C4B0020B84B0020CC4B002012
:103A0000EC4B0020184C0020044C0020344B0020CC
:103A1000384B002010B5044600F0FCFC204A136827
:103A2000013313601F4B1B68002B31D01E4B1B68EA
:103A30003BB91C4B1B68DA6AE36A9A4201D8194BFE
:103A40001C601A4A136801331360E36A01229A402A
:103A50001749086802430A6003EB83039A00211D9B
:103A60001448104400F086FE00F0F6FC0E4B1B6874
:103A70006BB10C4B1B68DA6AE36A9A4207D24FF0CB
:103A800080520D4B1A60BFF34F8FBFF36F8F10BD85
:103A9000044B1C601368012BD3D1FFF787FFD0E7DD
:103AA000A04B0020304B0020004C0020B04B0020E9
:103AB000B44B00203C4B002004ED00E00F4B1B6892
:103AC000D3B110B500F0A6FC0D4BDB68DC68201DFF
:103AD00000F076FE0B4A1368013B1360074A136837
:103AE000013B136000F0B8FC2046FFF709FF034BD1
:103AF0001B68002BE6D110BD704700BFA44B00200F
:103B0000184C0020A04B002008B5FFF7D7FF064B4C
:103B10001B68012BF9D94FF08052044B1A60BFF398
:103B20004F8FBFF36F8FF0E73C4B002004ED00E0B8
:103B300070B504460E461D4B1D681D4B18680430B9
:103B400000F03EFE50B91A4B1B68DA6A012303FAF3
:103B500002F218490B6823EA02030B60B4F1FF3F3D
:103B600013D02C44124B1B685C60A54216D8124B34
:103B700018680F4B1968043100F008FE0F4B1B68E2
:103B80009C4201D20D4B1C6070BD002EE9D0084B49
:103B9000196804310A4800F0EDFD70BD094B186842
:103BA000034B1968043100F0F1FD70BD2C4C00206E
:103BB000304B0020B44B0020344B0020E44B00205D
:103BC000044C0020384B00202DE9F04385B0064618
:103BD0000F4615469846900000F04CFD00B3814614
:103BE000502000F047FD0446B0B1C0F83090CCB191
:103BF0000023039302940D9B01930C9B0093434677
:103C00002A4639463046FFF784FE2046FFF702FF7A
:103C1000012005B0BDE8F083484600F07DFDE6E7F1
:103C20000024E4E74FF0FF30F3E7000000B583B075
:103C3000174B019300230093802216491648FFF783
:103C4000C3FF012805D0B0F1FF3F17D003B05DF8E6
:103C500004FB4FF0A00383F31188BFF36F8FBFF312
:103C60004F8F4FF0FF320D4B1A6001220C4B1A6040
:103C700000220C4B1A6000F05DFCE7E74FF0A00358
:103C800083F31188BFF36F8FBFF34F8FFEE700BF41
:103C9000E04B002038702000093B2000E44B00205E
:103CA000004C00202C4C0020024A136801331360A2
:103CB000704700BFAC4B0020014B1868704700BF35
:103CC0002C4C0020F8B53A4B1B68002B64D1394BC3
:103CD0001D6801351D60C5B9374B1B681B6843B1B2
:103CE0004FF0A00383F31188BFF36F8FBFF34F8FA3
:103CF000FEE7314A1168314B186810601960304A8C
:103D0000136801331360FFF7E5FD2E4B1B689D42DE
:103D100038D200242C4B1B68DB6A03EB83039A0028
:103D20002A4B9B58012B3CD901243AE00124224B19
:103D30001B681B6843B3204B1B68DB68DE68736835
:103D40009D4226D3371D384600F03AFDB36A1BB1B9
:103D500006F1180000F034FDF36A01229A401C4974
:103D6000086802430A6003EB83039A003946174848
:103D7000104400F0FFFCF26A134B1B68DB6A9A42A6
:103D8000D4D2D4E70024D2E74FF0FF320D4B1A60B3
:103D9000C0E70C4A1360BDE70E4A13680133136095
:103DA00000240D4B1B6803B101242046F8BD00BF61
:103DB000AC4B00202C4C0020344B0020384B002012
:103DC000E84B0020E44B0020304B00203C4B00200F
:103DD000B44B0020A84B0020304C002038B5354BA8
:103DE0001B6843B94FF0A00383F31188BFF36F8FB3
:103DF000BFF34F8FFEE700F00DFB2E4B1A68013A20
:103E00001A601B68002B50D12B4B1B6823B9002470
:103E100000F022FB204638BD0024284B1B681BB352
:103E2000264BDB68DC6804F1180000F0C9FC251D96
:103E3000284600F0C5FCE36A01229A402049086840
:103E400002430A6003EB83039A0029461D4810448D
:103E500000F090FCE26A1C4B1B68DB6A9A42DCD3E0
:103E600001221A4B1A60D8E70CB1FFF733FD184B4B
:103E70001C6874B9154B1B68CBB14FF08052154BC1
:103E80001A60BFF34F8FBFF36F8F0124C0E7013C6F
:103E900007D0FFF717FF0028F9D001220B4B1A605B
:103EA000F5E700220A4B1A60E4E70024B0E700249B
:103EB000AEE700BFAC4B0020A04B0020EC4B002035
:103EC000B44B00203C4B0020304B0020304C0020F5
:103ED000A84B002004ED00E010B5A8B10446104B3B
:103EE0001B6843B14FF0A00383F31188BFF36F8FBA
:103EF000BFF34F8FFEE7FFF7D7FE00212046FFF705
:103F000017FEFFF76BFF00E0002038B94FF080523A
:103F1000044B1A60BFF34F8FBFF36F8F10BD00BF0C
:103F2000AC4B002004ED00E0204B1B68C3B900221D
:103F30001F4B1A601F4B1B68B3FA83F3DBB2C3F14C
:103F40001F0303EB83018A001B498A5862B94FF0B3
:103F5000A00383F31188BFF36F8FBFF34F8FFEE78A
:103F60000122134B1A60704710B413489A00D418FA
:103F7000A10001444C6864684C601A449100083107
:103F8000084484420AD003EB83039A000A4B13448B
:103F90005B68DA68094B1A6010BC7047606803EB15
:103FA00083029100044A0A445060ECE7AC4B0020C5
:103FB000304C0020B44B00203C4B0020304B002004
:103FC00040B94FF0A00383F31188BFF36F8FBFF3A5
:103FD0004F8FFEE710B50C46044B1968183100F0FE
:103FE000D5FB01212046FFF7A3FD10BD304B00207B
:103FF00038B5C368DC6824B304F11805284600F01E
:10400000DFFB184B1B682BBB251D284600F0D8FB97
:10401000E36A01229A401449086802430A6003EBEC
:1040200083039A0029461148104400F0A3FBE26A7A
:104030000F4B1B68DB6A9A4211D901200D4B1860A7
:1040400038BD4FF0A00383F31188BFF36F8FBFF328
:104050004F8FFEE72946084800F08CFBE7E7002079
:1040600038BD00BFAC4B0020B44B00203C4B0020BF
:10407000304B0020304C0020EC4B0020034B1B68E1
:104080000360034B1B684360704700BFE84B002090
:104090002C4C0020F8B5E0B1054619B30C4600F0F1
:1040A000B9F91A4B18686968421A2368B3F1FF3FDF
:1040B00028D02F68164E3668B74201D0884223D2E6
:1040C0009A4218D300232360012400F0C5F920464A
:1040D000F8BD4FF0A00383F31188BFF36F8FBFF3D8
:1040E0004F8FFEE74FF0A00383F31188BFF36F8F6C
:1040F000BFF34F8FFEE79B1A23602846FFF7BEFFF2
:104100000024E2E70024E0E70124DEE72C4C002055
:10411000E84B00200122014B1A607047304C002010
:10412000002850D038B50446C26A28490968C96ACF
:104130008A423ED28169002905DB24490968C96A9F
:10414000C1F105018161606902EB82029100204AA0
:104150000A44904205D01D4A1268D26AE2620120E8
:1041600038BD251D284600F02BFB68B9E36A03EB38
:1041700083018A0016498A5832B901229A401549AA
:104180000B6823EA02030B60104B1B68DB6AE362D7
:10419000012404FA03F20F49086802430A6003EBA2
:1041A00083039A0029460A48104400F0E3FA2046A7
:1041B00038BD026C054B1B68DB6A9A4201D20120B4
:1041C00038BD002038BD0020704700BF304B0020B4
:1041D0003C4B0020B44B002000284AD038B50446A0
:1041E000274A1268904208D04FF0A00383F3118849
:1041F000BFF36F8FBFF34F8FFEE7426C42B94FF0B2
:10420000A00383F31188BFF36F8FBFF34F8FFEE7D7
:10421000013A4264C06A216C88422CD06ABB251DD9
:10422000284600F0CDFA70B9E26A02EB82018B00F9
:104230001449CB583BB9012303FA02F212490B6827
:1042400023EA02030B60236CE362C3F10502A2615F
:10425000012404FA03F20C49086802430A6003EBE4
:1042600083039A0029460748104400F083FA204649
:1042700038BD00207047002038BD002038BD00BF89
:10428000304B00203C4B0020B44B0020002856D07F
:1042900038B50446406C40B94FF0A00383F3118851
:1042A000BFF36F8FBFF34F8FFEE7226C8A4200D2BD
:1042B0000A46E16A8A4201D0012800D038BD204870
:1042C0000068844208D14FF0A00383F31188BFF344
:1042D0006F8FBFF34F8FFEE7E262A069002802DB19
:1042E000C2F10502A261636901EB81018800154AF0
:1042F00002449342E2D1251D284600F061FA70B9CC
:10430000E26A02EB82018B000E49CB583BB90123D4
:1043100003FA02F20C490B6823EA02030B60E36A1A
:1043200001229A400849086802430A6003EB8303AC
:104330009A0029460348104400F01CFABEE7704773
:10434000304B00203C4B0020B44B0020054B1B6839
:1043500023B1044B1A68536C01335364014B186842
:10436000704700BF304B002082B0002301930D4BFB
:104370001B68B3F1FF3F08D04FF0A00383F311880F
:10438000BFF36F8FBFF34F8FFEE74FF0A00383F3B0
:104390001188BFF36F8FBFF34F8F019B002BFCD0B1
:1043A00002B070473046002006480068006880F37D
:1043B000088862B661B6BFF34F8FBFF36F8F00DF1F
:1043C00000BF000008ED00E04FF0807340F8043CAF
:1043D00021F0010140F8081C034B40F80C3C40F868
:1043E000202C4038704700BF6943200000000000C7
:1043F000074B19680868B0E8F00F80F30988BFF32D
:104400006F8F4FF0000080F311884EF00D0E704753
:10441000304B00204FF0A00383F31188BFF36F8F60
:10442000BFF34F8F0A4A136801331360012B0DD17C
:10443000084B1B6813F0FF0F08D04FF0A00383F365
:104440001188BFF36F8FBFF34F8FFEE7704700BF38
:104450003046002004ED00E0094B1B6843B94FF0E3
:10446000A00383F31188BFF36F8FBFF34F8FFEE775
:10447000013B034A13600BB983F31188704700BFF7
:104480003046002000000000000000000000000096
:10449000EFF30980BFF36F8F0D4B1A6820E9F00F1F
:1044A00010602DE908404FF0A00080F31188FFF75D
:1044B0003BFD4FF0000080F31188BDE8084019680B
:1044C0000868B0E8F00F80F30988BFF36F8F70477A
:1044D000304B002008B54FF0A00383F31188BFF3E1
:1044E0006F8FBFF34F8FFFF7EDFB18B14FF0805286
:1044F000024B1A60002383F3118808BD04ED00E02D
:1045000010B5084C00232360074A136001F03AF904
:10451000064BA3FB003080090138054B18600723C8
:10452000236010BD10E000E018E000E0D34D621001
:1045300014E000E010B582B0274B1A78D2B2019295
:10454000FF221A701B78DBB28DF803309DF8033020
:1045500003F0A003214A13700722214B1A6009E0DF
:104560001F4A1368013B13609DF803305B00DBB208
:104570008DF803309DF8033013F0800FF0D1184B05
:104580001B68042B08D04FF0A00383F31188BFF3FE
:104590006F8FBFF34F8FFEE71B0203F4E063104AF7
:1045A0001360019BDBB20C4A13700E4B1A6842F485
:1045B00060021A601A6842F060421A60FFF7A0FFBA
:1045C0000024094B1C60FFF7EFFEFFF7ADFCFFF77F
:1045D000CBFE204602B010BD00E400E0344C0020C9
:1045E000384C002020ED00E030460020EFF305833A
:1045F0000F2B0FD9104A9B5CDBB2104A1278934202
:1046000008D24FF0A00383F31188BFF36F8FBFF37D
:104610004F8FFEE70A4B1B6803F4E063094A1268F8
:10462000934208D94FF0A00383F31188BFF36F8F33
:10463000BFF34F8FFEE77047F0E300E0344C0020FB
:104640000CED00E0384C0020074B23F00703074A2D
:10465000136000205060064A40F6F8715160106007
:1046600059601A60704700BF444C0020485C00202D
:104670003C5C002070B50446FFF716FB224B1B681C
:104680007BB134B1083414F0070F02D024F00704D2
:104690000834621E40F6F6739A4230D81B4D2B68E0
:1046A00007E0FFF7D1FF0122174B1A60E9E71D462B
:1046B000134659688C4202D91A68002AF7D1144A65
:1046C00093421ED02E6808361A682A60091B1029EA
:1046D0000CD91D1969605C606C680C4900E01146DA
:1046E0000A6850688442FAD82A600D605968094AFD
:1046F00013685B1A1360FFF771FB304670BD00262C
:10470000F9E70026F7E700BF445C0020485C002082
:104710003C5C002034460020C0B170B50546A0F1D5
:104720000806FFF7C1FA55F8044C094A00E01A469A
:10473000136859688C42FAD845F8083C1660054A57
:1047400013681C441460FFF749FB70BD704700BF3D
:10475000485C00203446002000F1080343604FF01D
:10476000FF328260C360036100230360704700234F
:104770000361704743684B609A688A609A68516029
:1047800099600861036801330360704730B40D68B5
:10479000B5F1FF3F02D000F1080202E0026904E037
:1047A0001A4653681C68A542FAD253684B60996058
:1047B0008A605160086103680133036030BC704750
:1047C000036942688168916081684A605A689042D2
:1047D00006D0002202611A68013A1A601868704710
:1047E0005960F6E7FEE700000C4B98420FD003F546
:1047F000805398420DD003F5805398420BD003F5B7
:104800008053984201D0002070470120704701205A
:104810007047012070470120704700BF00900D4095
:1048200010B50446FFF7E0FF60B1104B9C4218D072
:104830000DD90F4B9C4216D003F580539C420ED1EC
:1048400013200BE062210B48FFF7CCFFEDE7A3F547
:1048500080539C4201D1102000E0002010BD0020B8
:10486000FCE71120FAE71220F8E700BF00A00D4096
:1048700000B00D404070200070B504460D4616464D
:10488000FFF7B2FF90B1022E15D816F0010F17D026
:10489000D4F800342B43C4F8003416F0020F14D0BF
:1048A000D4F820341D43C4F8205470BDB521094804
:1048B000FFF798FFE7E7B7210648FFF793FFE4E724
:1048C000D4F8003423EA0503E5E7D4F8203423EADA
:1048D0000505E8E74070200070B504460E46154611
:1048E000FFF782FF08B33DB1042D05D0012D03D0A1
:1048F000022D01D0072D1ED115F0010F21D0D4F8C3
:1049000008343343C4F8083415F0020F1ED0D4F82D
:1049100004343343C4F8043415F0040F1BD0D4F826
:104920000C341E43C4F80C6470BD40F219110C48DD
:10493000FFF758FFD7E74FF48E710948FFF752FF92
:10494000DAE7D4F8083423EA0603DBE7D4F80434C2
:1049500023EA0603DEE7D4F80C3423EA0606E1E78F
:104960004070200038B505460C46FFF73DFF28B1E2
:10497000D5F810341C43C5F8104438BD40F26D1111
:104980000148FFF72FFFF3E74070200038B50446D9
:104990000D46FFF729FF18B145B1D4F8180438BD0A
:1049A0004FF4D5710348FFF71DFFF5E7D4F8140461
:1049B000F5E700BF4070200038B504460D46FFF70C
:1049C00013FF10B1C4F81C5438BD4FF4EC71024809
:1049D000FFF708FFF6E700BF4070200038B5044637
:1049E0000D46FFF701FF50B12046FFF719FF0446BF
:1049F000294600F0ADFA204600F030FA38BD4FF4F9
:104A0000FD710248FFF7EEFEEEE700BF40702000A8
:104A100038B504460D46FFF7E7FE10B154F82500FF
:104A200038BD4FF414710248FFF7DCFEF6E700BF13
:104A30004070200070B504460D461646FFF7D4FEC0
:104A400010B144F8256070BD4FF41C710148FFF7A8
:104A5000C9FEF6E74070200038B504460D46FFF762
:104A6000C3FE50B1002229462046FFF705FF002271
:104A70002946204600F014FC38BD4FF4247102484A
:104A8000FFF7B0FEEEE700BF4070200038B50446E7
:104A90000D46FFF7A9FE50B1012229462046FFF737
:104AA000EBFE00222946204600F0FAFB38BD40F21A
:104AB000B5210248FFF796FEEEE700BF40702000E8
:104AC00038B504460D46FFF78FFE50B10222294645
:104AD0002046FFF7D1FE00222946204600F0E0FBE9
:104AE00038BD40F206310248FFF77CFEEEE700BF1A
:104AF0004070200038B504460D46FFF775FE68B1DA
:104B00000E4B9C4210D0022229462046FFF7B4FEED
:104B100000222946204600F0C3FB38BD40F25B313D
:104B20000748FFF75FFEEBE715F00F0FEBD04FF4F0
:104B300057710348FFF756FEE5E700BF00B00D4090
:104B40004070200038B504460D46FFF74DFE68B1B1
:104B50000E4B9C4210D0022229462046FFF78CFEC5
:104B600008222946204600F09BFB38BD40F28531E3
:104B70000748FFF737FEEBE715F00F0FEBD040F2D9
:104B800086310348FFF72EFEE5E700BF00B00D4079
:104B90004070200070B504460D461646FFF724FE0F
:104BA000A8B1012E19D8164B9C421CD00023154ADF
:104BB00094421AD0144A944219D09D40012E18D024
:104BC000D4F8043723EA0505C4F8045770BD40F251
:104BD000BE310E48FFF706FEE3E74FF470710B4855
:104BE000FFF700FEDFE70823E1E71023E2E71823E1
:104BF000E3E7D4F804371D43C4F80457E6E700BFE1
:104C000000A00D4000B00D4000C00D4040702000DD
:104C100038B504460D46FFF7E7FD78B1104B9C42CE
:104C200012D000230F4A944210D00F4A94420FD062
:104C300085B1D4F81807D840C0B238BD40F2BA41A7
:104C40000A48FFF7CFFDE9E70823EBE71023ECE77D
:104C50001823EDE7D4F82007D840C0B2EDE700BF35
:104C600000A00D4000B00D4000C00D40407020007D
:104C700038B504460D46FFF7B7FD80B10E4B9C4298
:104C800013D000210D4B9C4211D00D4B9C4210D0F3
:104C90008D40D4F818172943C4F8181738BD40F2CE
:104CA000FB410848FFF79EFDE8E70821EAE71021ED
:104CB000EBE71821ECE700BF00A00D4000B00D406D
:104CC00000C00D404070200010B5044610F03F0FAA
:104CD00004D0054B18682043186010BD40F23351D2
:104CE0000248FFF77FFDF4E794200D40407020005C
:104CF0000C4B98420FD003F5805398420DD003F52A
:104D0000805398420BD003F58053984201D0002085
:104D10007047012070470120704701207047012033
:104D2000704700BF0000034070B505460C461646AC
:104D3000FFF7DEFFA8B1FF2C06D0B4F57F4F03D0FC
:104D40004FF6FF739C4212D11A4B9D4217D003F5C8
:104D500080539D421BD003F580539D420DD03325D7
:104D60000EE040F239311448FFF73CFDE3E740F232
:104D70003B311148FFF736FDE6E7272500E0232504
:104D800014F0FF0F05D114F47F4F0AD170BD252513
:104D9000F6E73146284600F0DBF8284600F05EF8DA
:104DA000F1E701353146284600F0D2F8284600F0F8
:104DB00055F8EBE7000003404C70200038B504467E
:104DC0000D46FFF795FF10B13DB1206A38BD40F2A6
:104DD00004410348FFF706FDF6E7E069F6E700BF88
:104DE0004C70200038B504460D46FFF781FF08B12E
:104DF000656238BD40F22E410148FFF7F3FCF7E74A
:104E00004C70200008B50146182000F0A1F81820C9
:104E100000F024F808BD000038B504460D46031F15
:104E20003B2B10D8A2080B4B53F822100B6804F050
:104E30000304E400FF22A24023EA020305FA04F47B
:104E40001C430C6038BD4FF4DE710348FFF7CAFC09
:104E5000E8E700BF807020005C70200010B50446B9
:104E60003F2814D8042C18D0052C1CD0062C20D098
:104E70000F2C24D00F2C15D9103C04F01F0164090D
:104E8000124B53F8242001238B4013600AE04FF4A7
:104E9000FB710F48FFF7A6FCE4E70E4A136843F4E2
:104EA0008033136010BD0B4A136843F40033136062
:104EB000F8E7084A136843F480231360F2E7064AD0
:104EC000136843F002031360ECE700BF6C7020002E
:104ED0005C70200024ED00E010E000E010B5044616
:104EE0003F2810D80E2C14D00F2C18D00F2C15D909
:104EF000103C04F01F0164090C4B53F824200123DB
:104F00008B4013600AE040F2AE210948FFF76AFCCB
:104F1000E8E7084A136843F00063136010BD054AD0
:104F2000136843F000731360F8E700BF247120009A
:104F30005C70200004ED00E0044B1B6813F0010FCF
:104F400001D0012070470020704700BF98200D401D
:104F500070B504460E463F2813D8FFF7EDFFA8B101
:104F6000104B1B68104DAB4218D00E4B1868002335
:104F70003F2B11D850F823100B4A42F8231001336D
:104F8000F6E7FE210948FFF72DFCE6E74FF48171B3
:104F90000648FFF727FCE3E7024B1D60024B43F88E
:104FA000246070BD08ED00E0004000205C7020002F
:104FB00070B504460D461646244B98420BD003F5B7
:104FC0008053984207D003F58053984203D003F5ED
:104FD0008053984202D135B1002315E0FB211C48D3
:104FE000FFF700FCF7E7FC211948FFF7FBFBF3E7AD
:104FF000A2F58052944203D1164A52F8232001E0D0
:10500000A2F5A04216600133072B1ED845FA03F221
:1050100012F0010FF7D0104A94420ED0E8D90F4A8F
:1050200094420ED002F58052944203D10C4A52F8B9
:105030002320E7E7A2F50042E4E70A4A52F82320DA
:10504000E0E7094A52F82320DCE770BD00900D40EC
:10505000387120006471200000A00D4000B00D40A8
:1050600024722000A4712000E471200070B5054670
:105070000C461646854B98420BD003F58053984258
:1050800007D003F58053984203D003F5805398422C
:1050900073D1631EDBB2012B0BD9042C09D0082C71
:1050A00007D0102C05D0202C03D0402C01D0802C10
:1050B00069D1774B9E423BD004339E4238D00433B3
:1050C0009E4235D004339E4232D004339E422FD0CC
:1050D00004339E422CD004339E4229D004339E4296
:1050E00026D004339E4223D004339E4220D0043382
:1050F0009E421DD004339E421AD004339E4217D0E4
:1051000004339E4214D004339E4211D004339E4295
:105110000ED004339E420BD004339E4208D0043399
:105120009E4205D004339E4202D004339E4230D1C9
:10513000584B9D4259D032D9574B9D4276D003F5FA
:1051400080539D4243D1012C00F091800023022C1A
:1051500000F08F80042C00F08E80082C00F08D80F1
:10516000102C00F08C80202C00F08B80402C00F064
:105170008A80802C29D11F2327E040F26D114748F7
:10518000FFF730FB85E740F271114448FFF72AFB37
:105190008FE74FF4C3714148FFF724FBC8E7A3F53D
:1051A00080539D4210D1022C13D00023042C12D026
:1051B000082C12D0102C12D0202C12D0402C12D03F
:1051C000802C02D1072300E00023336070BD002350
:1051D000FBE70123EAE70223EAE70323EAE70423E4
:1051E000EAE70523EAE70623EAE7012C10D00023CB
:1051F000022C0FD0042C0FD0082C0FD0102C0FD065
:10520000202C0FD0402C0FD0802CDED10F23DCE7D8
:105210000823EDE70923EDE70A23EDE70B23EDE78C
:105220000C23EDE70D23EDE70E23EDE7012C10D065
:105230000023022C0FD0042C0FD0082C0FD0102CE0
:105240000FD0202C0FD0402C0FD0802CBDD1172395
:10525000BBE71023EDE71123EDE71223EDE713235E
:10526000EDE71423EDE71523EDE71623EDE718230B
:105270006DE719236EE71A236FE71B2370E71C23E2
:1052800071E71D2372E71E2373E700BF00900D40F6
:1052900000410D4000A00D4000B00D4038712000CD
:1052A00070B504460D461646364B98420BD003F5B2
:1052B0008053984207D003F58053984203D003F5FA
:1052C000805398420ED19DB1082E06D0042E04D0F2
:1052D000022E02D0012E00D086B92B4B9C4213D057
:1052E00000232CE040F259212848FFF77BFAEAE737
:1052F00040F25A212548FFF775FAE5E740F25F21B1
:105300002248FFF76FFAE8E715F00F0FE8D0042EF8
:1053100003D0022E01D0012EE2D140F266211B48BB
:10532000FFF760FADCE7A2F58052944203D1184AF5
:1053300052F8232001E0A2F59F4216600133072BAB
:105340001ED845FA03F212F0010FF7D0114A944229
:105350000ED0E8D90C4A94420ED002F58052944205
:1053600003D10D4A52F82320E7E7A2F5FF42E4E714
:105370000A4A52F82320E0E7094A52F82320DCE7E2
:1053800070BD00BF00900D4000B00D40387120008E
:105390004471200000A00D400472200084712000A0
:1053A000C4712000074B1B68074A106843EA0023BA
:1053B0000432106843EA00430432106843EA006094
:1053C000704700BF40500D4044500D402DE9F84358
:1053D0000546894617469846089C099E354B9842D3
:1053E00003D003F58053984246D14FB1022F07D026
:1053F000012F05D0032F03D0102F01D0202F40D133
:10540000B8F1020F42D8B8F1000F02D1B4EB590F36
:105410000CD9B8F1000F05D0274BA3FB0923B4EB3F
:10542000D30F03D986212548FFF7DCF9B9FBF4F443
:10543000B4F57E4F2FD8331F0C2B31D8B8F1020FA3
:1054400033D00023B8F1000F31D1002213436B6039
:1054500000220232B4FBF2F3013BFF2BF9D82A61A0
:10546000B901C9B207F0300741EA03233B43013ECB
:1054700033432B60BDE8F8837B211048FFF7B2F976
:10548000B3E781210D48FFF7ADF9B9E784210B4857
:10549000FFF7A8F9B7E787210848FFF7A3F9CAE79C
:1054A00088210648FFF79EF9C8E70823CAE70422C7
:1054B000CCE700BF00800040ABAAAAAA447220003B
:1054C00010B50446084B984203D003F58053984228
:1054D00004D1636843F00203636010BDB92103483F
:1054E000FFF780F9F5E700BF00800040447220001C
:1054F00010B50446084B984203D003F580539842F8
:1055000004D1636823F00203636010BDD221034815
:10551000FFF768F9F5E700BF008000404472200003
:1055200038B504460D460D4B984203D003F5805321
:1055300098420BD1094B9C420DD03224294620467B
:10554000FFF706FD2046FFF789FC38BDF621044829
:10555000FFF748F9EEE71724F0E700BF00800040AE
:105560004472200038B504460D46094B984203D0DA
:1055700003F58053984202D13DB1E06938BD40F255
:1055800081110448FFF72EF9F6E7A069F6E700BF9E
:10559000008000404472200038B504460D46074B99
:1055A000984203D003F58053984201D1256238BD5B
:1055B0004FF4D8710248FFF715F9F7E70080004073
:1055C0004472200038B504460D46104B984203D073
:1055D00003F5805398420DD1226802F00F026FF05C
:1055E000010393402B420BD1E36813F0020FFBD071
:1055F000A56038BD4FF4E8710548FFF7F3F8EBE715
:105600004FF4E9710248FFF7EDF8EDE70080004044
:105610004472200038B504460D460A4B984203D028
:1056200003F58053984206D1E36813F0040FFBD0D2
:10563000A3682B6038BD40F227210348FFF7D2F85A
:10564000F2E700BF008000404472200038B50446F5
:105650000D46084B984203D003F58053984203D17E
:10566000616A2943616238BD40F27D210248FFF73B
:10567000B9F8F5E7008000404472200038B50446D0
:105680000D46094B984203D003F58053984204D14C
:10569000616A21EA0501616238BD4FF42771034850
:1056A000FFF7A0F8F4E700BF00800040447220003C
:1056B00010B50446084B984203D003F58053984236
:1056C00003D1E068C0F3001010BD40F2B9210348D7
:1056D000FFF788F8F5E700BF008000404472200023
:1056E00038B504460D460C4B984203D003F5805361
:1056F000984204D1012D08D8C4F8C85F38BD40F2E3
:10570000DD210648FFF76EF8F4E740F2DE2103489A
:10571000FFF768F8F0E700BF008000404472200007
:1057200003281ED9B0F5807F1DD040F201139842A6
:105730001BD0B0F5007F1AD040F20123984218D058
:10574000B0F5407F17D0B0F5806F16D040F201431E
:10575000984214D0B0F5A06F01D00020704701200E
:1057600070470120704701207047012070470120D9
:1057700070470120704701207047012070470120C9
:10578000704700000E4B1B6803F00703072B05D87A
:10579000DFE803F01406080A0C0E10120020704710
:1057A00008487047084870470848704708487047DD
:1057B00008487047084870470848704708487047CD
:1057C00004200D400024F40000127A0000093D007E
:1057D00080841E0040420F0020A1070090D00300EB
:1057E0000048E80110B50446072807D8064B18689A
:1057F00020F4E06040EA0420186010BD4FF4B0715E
:105800000248FEF7EFFFF1E700200D405072200044
:105810000E4B1B68C3F30223072B05D8DFE803F008
:105820001406080A0C0E1012002070470848704732
:10583000084870470848704708487047084870474C
:1058400008487047084870470848704704200D40D2
:105850000024F40000127A0000093D0080841E003C
:1058600040420F0020A1070090D003000048E8014B
:1058700001387FF4FDAF704770B506460D461446FB
:10588000072A01D822B919B1D9211B48FEF7AAFF6E
:1058900025B91A4A136843F400131360174B1A68AA
:1058A000174B13400EB943F08073BDB14FF48035F0
:1058B0002B432343114A1360124B1B68002403F44B
:1058C0008033AB420CD04FF6FE739C4208D81020B8
:1058D000FFF7CEFF0B4B1B680134F0E70025E7E72D
:1058E0004FF6FE739C4200D870BD4FF481710248A0
:1058F000FEF778FFF8E700BF5072200000200D404F
:10590000F8FFFEFE04200D40014B08221A60FEE75E
:1059100074200D4070B51B4B1D6805F4E06615F052
:10592000070500D056B9184B1A680DBB01231A435E
:1059300006BB4FF480731343134A1360134C236860
:1059400043F00403236000F031FB236823F00403D9
:10595000236005B15EB90C4B1A686DB96FF007038F
:105960001A4066B96FF4E0631340074A136070BDD4
:105970000023DCE70023DEE74FF0FF33F0E74FF0D2
:10598000FF33F1E704200D4000200D4010ED00E052
:1059900010B50446FFF7C4FE68B1C4F30322094BF7
:1059A00053F822100B6804F00F04012202FA04F4E9
:1059B0001C430C6010BD40F2D7210348FEF712FFD4
:1059C000EBE700BF787220005072200010B504464B
:1059D000FFF7A6FE68B1C4F30322094B53F8221067
:1059E0000B6804F00F04012202FA04F41C430C605B
:1059F00010BD40F21A310348FEF7F4FEEBE700BF9A
:105A0000907220005072200010B50446FFF788FE07
:105A100070B1C4F30322094B53F822100B6804F051
:105A20000F04012202FA04F423EA04040C6010BDFE
:105A300040F287310248FEF7D5FEEAE760722000A7
:105A400050722000014B1868704700BF18E000E05A
:105A5000064B984207D003F58053984201D00020AE
:105A60007047012070470120704700BF00C0004010
:105A700070B506460C461546FFF7EAFF68B1042CE0
:105A800010D83DB1082D05D0102D03D0182D01D010
:105A9000202D0CD12C43746370BDA8210648FEF75D
:105AA000A1FEECE7AD210448FEF79CFEE9E7B22138
:105AB0000148FEF797FEEDE7A872200010B50446F6
:105AC000FFF7C6FF50B1E36A43F01003E362236BB4
:105AD00043F4407343F00103236310BD40F2A3116C
